:020000040800F2
:10000000500B0020850200088D2E0008552B00089B
:10001000892E000885110008FD3600080000000048
:100020000000000000000000000000001D3000087B
:10003000851B000800000000912E000821300008F8
:100040009F0200089F0200089F0200089F0200080C
:100050009F0200089F0200089F0200089F020008FC
:100060009F0200089F0200089F0200089F020008EC
:100070009F0200089F0200089F0200089F020008DC
:100080009F0200089F0200089F0200089F020008CC
:100090009F0200089F0200089F0200089F020008BC
:1000A0009F0200089F0200089F0200089F020008AC
:1000B0009F0200089F0200089F0200089F0200089C
:1000C0009F0200089F0200089F0200089F0200088C
:1000D0009F0200089F0200089F0200089F0200087C
:1000E0009F0200089F0200089F0200089F0200086C
:1000F0009F0200089F0200089F0200089F0200085C
:100100009F0200089F0200089F0200089F0200084B
:100110009F0200089F0200089F0200089F0200083B
:100120009F0200089F0200089F0200089F0200082B
:100130009F0200089F0200089F0200089F0200081B
:100140009F0200089F0200089F0200089F0200080B
:100150009F0200089F0200089F0200089F020008FB
:100160009F0200089F0200089F0200089F020008EB
:100170009F0200089F0200089F0200080000000084
:100180009F0200089F02000800F002F800F06BF8E0
:1001900014A696E8000CB244B344DA4501D100F04D
:1001A00062F8BAE80F000FA696E83000A5EB040548
:1001B00004EB0607AAEB0704A7F101074FEA1515A0
:1001C0004FEA3414A4F10104AC4201D300F04BF81F
:1001D00013F0010F18BFFB1A43F0010300F001F800
:1001E000DBE71847B4400000D4400000103A24BFB9
:1001F00078C878C1FAD8520724BF30C830C144BF8C
:1002000004680C6070470000704700000023002461
:1002100000250026103A28BF78C1FBD8520728BF16
:1002200030C148BF0B607047662903F00487652919
:1002300003F00187672903F0FE86612903F0FD863C
:10024000642900F0F380002070471FB503F0E6FE3C
:1002500000F022FE04000020002103F0C9FEE0604F
:100260001FBD10B510BD00F017FF1146FFF7EDFFE1
:1002700003F076FA00F035FF03B4FFF7F2FF03BC9A
:1002800000F078FF0948804709480047FEE7FEE78D
:10029000FEE7FEE7FEE7FEE7FEE7FEE7FEE7FEE736
:1002A00004480549054A064B70470000CD30000858
:1002B0008901000850050020500B00205007002045
:1002C0005007002053EA020C00F069802DE9F04B42
:1002D0004FF00006002B1FBFB3FA83F503FA05F4B5
:1002E00024FA05F65E4012BF1643B2FA82F502FA0E
:1002F00005F4C5F120051EBF22FA05FC44EA0C04F2
:10030000203556EA044C4FEA144418BF641C4FF0E1
:1003100000084FF00009904271EB030C39D300291B
:1003200019BFB1FA81F701FA07F6B0FA80F700FABF
:1003300007F6C7F120071EBF20FA07FC46EA0C06A5
:100340002037B6FBF4FCA7EB0507103F07F01F0BA7
:10035000CBF120062CFA06F60CFA0BFB44BFB34691
:100360000026202FA4BF5E464FF0000B5BEA060C70
:1003700008BF4FF0010B19EB0B0948EB0608ABFB6C
:10038000027C06FB02CC0BFB03CCC01B71EB0C0107
:10039000C1E70B46024641464846BDE8F08B13B51F
:1003A000084318BF4FF0FF300146AFF30080BDE8AF
:1003B0001C4070470FB41CB5074B06AA7B44694626
:1003C0000090059800F04FFD0020694600F05EFDAA
:1003D0001CBC5DF814FB0000CD0A000070B504469B
:1003E00085690068C10601D5302600E02026C007D7
:1003F00007D070BDD4E9012130469047206A401CE7
:1004000020626D1EF6D570BD70B504468569007812
:10041000C00707D170BDD4E9012120209047206A90
:10042000401C20626D1EF6D570BD00002DE9F04124
:100430000646002410687529314616A510D0AFF382
:100440000080002802DA404213A507E031688A07DD
:1004500001D512A502E0490704D511A5012401E048
:10046000AFF3008000210A2206F1240709E0B0FB67
:10047000F2FCB0FBF2F302FB1C003030785418465B
:10048000491C0028F3D123462A463046BDE8F041F6
:1004900000F0FEB8000000002D0000002B0000005E
:1004A000200000002DE9F05F894604464FF0000A65
:1004B000DFF874B1FB44C0F820A02046E16888470B
:1004C000002874D0252806D0D4E901219047206A5D
:1004D000401C2062F1E700265F462046E16888471D
:1004E0002028054607DB312D05D2781910F8200C9D
:1004F00008B10643F1E7B00701D526F00406C4F8B9
:100500001CA00027C4F818A02A2D09D0284603F003
:1005100067FD38B304EB8708303DC8F8185019E080
:1005200059F8041B204604EB87029161E168884773
:10053000012F054618D1E069002820DA26F02006B0
:100540001DE0D8F8180000EB800005EB40003038C3
:10055000C8F818002046E1688847054603F040FDCA
:100560000028EED1012F0AD02E2D08D12046E168B7
:1005700088477F1C0546022F46F02006C4DBA06991
:10058000002803DA404246F00106A061F00701D0DE
:1005900026F010066C2D0BD0682D09D04C2D39D0CB
:1005A0006A2D35D0742D35D07A2D33D016E038E051
:1005B000E1682F4620468847B842054609D16C2F8E
:1005C00026D04FF48060E168064320468847054600
:1005D00004E06C2F1AD04FF4807006430DB3A5F1E0
:1005E0004100192802D8203546F400664A462946BB
:1005F000204626604E46FFF717FE80B101280BD03B
:10060000F61D26F0070000F1080956E74020E4E750
:100610008020D8E70020D6E706F104094DE72846F8
:1006200052E7206ABDE8F09F863B000002F0FF031E
:1006300043EA032242EA024200F002B84FF000020D
:1006400000B5134694469646203922BFA0E80C50C8
:10065000A0E80C50B1F12001BFF4F7AF090728BFA3
:10066000A0E80C5048BF0CC05DF804EB890028BF1F
:1006700040F8042B08BF704748BF20F8022B11F048
:10068000804F18BF00F8012B7047704770477047C4
:100690002DE9F0470D4699469246044600F124089C
:1006A0000168880604D5E06921F01001216000E0AE
:1006B0000120A84201DD471B00E00027A1697A194B
:1006C00002EB0900081AA0612078C00602D4204677
:1006D000FFF784FE002608E0D4E901211AF806009D
:1006E0009047206A401C761C20624E45F4DB20783F
:1006F000C0060AD52046FFF771FE06E0D4E90121C5
:1007000030209047206A401C2062381EA7F1010764
:10071000F4DC07E0D4E9012118F805009047206ACD
:10072000401C2062281EA5F10105F3DC2046FFF7DE
:100730006BFE2078000602D50220BDE8F08701207C
:10074000FBE72DE9FF4F0C461E464FF0FF378BB0FD
:10075000D2E90001DDF860800A908A46C1F30A55AB
:1007600005B93D46002108464FF00000BAF1000FE0
:1007700000F4400005DA00EB80004FF4400101EA8C
:1007800050004FEA9059B9F1010F00DDB9460A98BF
:1007900050EA4A000ED044F61050A5F2FF3545430A
:1007A0002F14B8F1000F1ED07542291E1EDDC9F1AD
:1007B00000021CE0B8F1010F4FF0000001D0302121
:1007C00003E0F24305E02154401CB042FBDB30461D
:1007D0000022002121540B99C1F80880C1E90020B2
:1007E0000FB0BDE8F08FBD1B6D1CDEE74A4600DA96
:1007F000694206A800F0DAFB06AB93E8070003ABFA
:1008000083E8070050460A9903F00AF88DE80700CC
:10081000A0F500501F3800900398002D0ADD42F229
:100820001F014A460844002303A90390684603F0C9
:1008300073FA09E0A0F500504A461F38002303A9C7
:100840000390684603F07DFA8DE807000004000C71
:1008500003D04FF0FF30410800E01046B8F1000F20
:1008600003D00022009215461EE0751E05D400F04C
:1008700017FB303262556D1EF9D5B346012208438D
:1008800002D000227F1C04E02078302801D1002211
:100890007F1E002A099784D01DE0112D07DA00F091
:1008A000FFFA303262556D1C50EA0102F5D108435F
:1008B00002D00098C8B10EE00021681E05E0235C5C
:1008C000625C63542254401E491C8142F7DBAB46F4
:1008D000A81B401E0990002004F80B000B98099AF1
:1008E000C0F80880C0E9002B7AE711264FF0000815
:1008F00057E72DE9F04F88460446D21D22F0070144
:1009000091B0D1E90001CDE90A0103F051FB0246A3
:100910000B98C00F01D02D2007E02068810701D57A
:100920002B2002E0202101EAC000032A099001D017
:10093000072A05DB03464146204600F0F7FA0BE1A3
:100940002078800601D5E06900E00620B8F1650F47
:10095000814606D0B8F1660F18D0B8F1670F70D194
:1009600031E00020B9F1110F009001DB112301E00B
:1009700009F101030AAA01A90CA8FFF7E2FEDDE9CB
:100980000C70002609F10105834647E001204B4623
:1009900000904FF000470AAA01A90CA8FFF7D1FE6A
:1009A000DDE90DB00C995D46002610B909F1010092
:1009B0000D18B9EB050003D4C0F1FF3609F10105AC
:1009C000A5EB09002BE0B9F1010F01DA4FF00109A5
:1009D0000020B9F1110F0090484601DD112300E01D
:1009E00003460AAA01A90CA8FFF7ABFEDDE90C70CB
:1009F0004D4600268346207800070AD4AB4500DA2E
:100A00005D4601A8012D04DD411911F8011C3029B2
:100A100007D04F4502DA17F1040F04DA01208246AD
:100A20000FE06D1EEEE7002F02DCED1B3E4403E0FD
:100A3000781CA84200DD7D1CB81B00F1010A4FF0B4
:100A400000472078000703D4AA4501DB4FF0FF3AA6
:100A50000021B7F1004F0DF143088DF8431024D069
:100A600002202B23002F01DA7F422D230A21021EB0
:100A7000A0F1010000DC5FB197FBF1FC97FBF1F204
:100A800001FB1C7C17460CF1300C08F801CDEEE799
:100A9000A8F1010003702188090501D5452100E076
:100AA0006521A0F1010800F8011C09980FA9A1EB2C
:100AB0000807FF1D00B10120411901EBEA70A1698F
:100AC0003844081A401EA0612078C00602D420468F
:100AD000FFF784FC099828B1D4E901219047206AE6
:100AE000401C20622078C00622D52046FFF776FC05
:100AF0001EE0002E04DBB34502DD01A8805D00E0AE
:100B00003020D4E901219047206A401C2062761CE5
:100B1000AAF101005FEA000A0AD100F0BDF9C0683D
:100B20000168405CD4E901219047206A401C2062A2
:100B3000281EA5F10105DCDC07E0D4E9012118F845
:100B4000010B9047206A401C2062381EA7F1010764
:100B5000F3DC2046FFF758FC032011B041E600000B
:100B60002DE9F04F04460D46D21D22F0070089B052
:100B7000D0E900974846394603F01AFA0246F80FC2
:100B800001D02D2307E02068810701D52B2302E047
:100B9000202101EAC0038DF820300BB1012000E0D4
:100BA0000020032A824601D0072A04DB294620467A
:100BB00000F0BCF93FE12078800601D40D2500E06B
:100BC000E569C7F30A560D2D49DA00214FEA175B94
:100BD00008464FF00000002F00F4400007DA00EB59
:100BE00080004FF4400100EBD07001EA60008115F5
:100BF000012901DD4FF0FF3100224FEA850CBCF1E5
:100C0000180F06D31346ACF118004FF08052C240C3
:100C100003E04FF4801323FA0CF30CF10C0CBCF13D
:100C2000200F04D3ACF1200C09FA0CF001E007FA14
:100C30000CF000294FF0004801DD18B90FE00ED18B
:100C400040450CD319EB02095F4121B9404502D15F
:100C50009F4329EA0209BBEB175F00D0761C20886E
:100C6000000502D57B48784402E07A487844193878
:100C700008AA302302F80A30037C0AF10101002E91
:100C80000AF1020A53546A4602DC4FF0300101E0D7
:100C90004FF031014FF001088DF8001002D0A6F29C
:100CA000FF3603E059EA470100D06B4E002D02DC0D
:100CB0002178090704D54FF002082E218DF8011084
:100CC000C44600210BE0C7F303433F01C35C491C4A
:100CD0006D1E02F80830052908F1010801DA002D1F
:100CE000F1DC00210CE000EB1973491C1B786D1E30
:100CF000082902F808304FEA091908F1010801DA59
:100D0000002DF0DC21688B0602D516E0A8F1010861
:100D1000E04505DD02EB080313F8013C302BF5D06C
:100D2000B8F1000F09DD02EB080313F8013C2E2B8C
:100D300003D1090701D4A8F10108002D05DD3E21EA
:100D400002F808106D1E08F10108407C002E02F820
:100D5000080008F1010804DA2D20764202F80800A4
:100D600002E02B2002F808000A214FF47A70864234
:100D700008F101080BDB96FBF0F3303302F8083082
:100D800096FBF0F308F1010800FB136601E0642E06
:100D90000CDB642096FBF0F3303302F8083096FB4E
:100DA000F0F308F1010800FB136601E00A2E06DBF0
:100DB00096FBF1F0303002F8080008F1010896FBCC
:100DC000F1F001FB1060303002F80800A16908F171
:100DD000010808EB050202EB0A00081AA06120785E
:100DE000C00602D42046FFF7F9FA216A08AE01EBEB
:100DF0000A00206204E0D4E9012116F8010B9047B3
:100E0000BAF1010AF7D22078C00602D52046FFF7D2
:100E1000E5FA6E4609E016F8010B3E280FD0D4E93A
:100E200001219047206A401C2062B8F10108F2D2EB
:100E30002046FFF7E9FA09B00320BDE8F08F206AE9
:100E40002844206203E0D4E90121302090476D1E40
:100E5000EBD3F8E7F833000002FCFFFF01694A1CFE
:100E600002610878704700B58FB0CDE901310021EB
:100E7000059105497944CDE9031011466846FFF70D
:100E800011FB0FB000BD0000E5FFFFFF0A6802F88C
:100E9000010B0A60704700000048704730000020D6
:100EA00030B5B0F10A0271F100034FEA900E4EEA3C
:100EB000817EB0EB0E0061EB91014FEA101E4EEA0D
:100EC000017E10EB0E0041EB11114FEA102E4EEA9D
:100ED000016E10EB0E0041EB11214FEA104E4EEA6D
:100EE000014E10EB0E0041EB1141401841F10001A1
:100EF0004FEAD00040EA41704FEAD1014FEA810445
:100F000044EA907410EB800544EB01046D1944EB46
:100F10000404521BA3414FF0000348BF0A3200D51E
:100F200030BD401C41F1000130BD00002DE9F04111
:100F30001F46044603260168072A01F4006004DB0B
:100F400008B116A505E016A503E008B115A500E057
:100F500015A521F010002060A069C01EA0610FB18E
:100F6000401EA0612046FFF739FA4FB1D4E90121B4
:100F700038469047206A401C2062C01C206206E070
:100F8000206AFAE7D4E9012115F8010B9047761E93
:100F9000F8D22046FFF738FABDE8F0814E414E0006
:100FA0006E616E00494E4600696E66002DE9F0479D
:100FB000814616468AB0354878440DC88DE80D0044
:100FC00032487844801C03AC0DC884E80D0041F61B
:100FD0009B300844372190FBF1F290FBF1F5A5F12D
:100FE000800501FB12041B3C02D56442012000E095
:100FF0000020DFF898A080460027FA44AAF1BE0A34
:101000000EE0E0070AD03246684607EB47010123AD
:101010000AEB810102F095FE8DE8070064107F1C49
:10102000002CEED1194F7F44AE3F19E0E80715D0F0
:1010300007EB04100DF1180A90E80E008AE80E0084
:10104000C068F04201D1981908903246012306A9E0
:1010500003A802F076FE03AB83E807006D10641C62
:10106000002DE3D14FF0010332466946B8F1000F7D
:1010700003A802D002F050FE01E002F062FEC9E9CE
:101080000001C9F808200AB0BDE8F0873831000037
:1010900000487047100000207546FFF7F9FFAE4684
:1010A00005006946534620F00700854618B020B574
:1010B000FFF7F6F8BDE820404FF000064FF00007BC
:1010C0004FF000084FF0000BAC46ACE8C009ACE8AC
:1010D000C009ACE8C009ACE8C00921F007018D46A1
:1010E000704710B50446AFF300802046BDE81040BD
:1010F000FFF7C2B80000000030B44FF0013C50F8D8
:10110000042B51F8043BCCFA52F4D51A20D1FCB987
:1011100050F8042B51F8043BCCFA52F4D51A17D1ED
:10112000B4B950F8042B51F8043BCCFA52F4D51A58
:101130000ED16CB950F8042B51F8043BCCFA52F4A0
:10114000D51A05D1002CDAD030BC4FF00000704722
:1011500029BAB1FA81F111F01801D1F120008440CF
:10116000F2D1CA40CB4012F0FF0213F0FF0330BCB3
:10117000D01A704701491820ABBEFEE726000200D6
:1011800070470000FEE70000B0B540F60044C4F22E
:10119000020420464021002200F0E6FD032001F079
:1011A0005FFD002001F05CFD002001F059FD0020F2
:1011B00001F056FDFF2001F039FD40F27005C2F24A
:1011C00000052875FF2001F031FD6875FF2001F052
:1011D0002DFDA875FF2001F029FDE875FF2001F025
:1011E00025FD2876FF2001F021FD6876FF2001F023
:1011F0001DFDA876FF2001F019FDE876FF2001F023
:1012000015FD2877FF2001F011FD6877FF2001F020
:101210000DFDA877FF2001F009FDE877FF2001F020
:1012200005FD85F82000FF2001F000FD85F8210074
:10123000FF2001F0FBFC85F82200FF2001F0F6FC06
:1012400085F82300FF2001F0F1FC85F82400FF2041
:1012500001F0ECFC85F82500FF2001F0E7FC85F8A3
:101260002600FF2001F0E2FC85F82700FF2001F0B6
:10127000DDFC85F82800FF2001F0D8FC85F8290066
:1012800020464021012200F06FFD287D697DAA7D66
:10129000EB7D80F04A0081F05901084382F0430160
:1012A0002A7E084383F02D01084382F034016A7ED0
:1012B000084382F04D01AA7E084382F06201EA7E73
:1012C000084382F042012A7F084382F079016A7F55
:1012D000084382F07401AA7F084382F06501EA7F27
:1012E000084382F02D0195F82020084382F0460142
:1012F00095F82120084382F04F0195F822200843F9
:1013000082F04E0195F82320084382F0540195F8AD
:101310002420084382F02D0195F82520084382F00F
:10132000460195F82620084382F04C0195F82720C5
:10133000084382F0410195F82820084382F05301C8
:1013400095F82920084382F048010843C0B2B0FA5A
:1013500080F04009B0BD00002DE9F04F89B013784E
:101360000291002B00F0208340F27007C2F20007C8
:101370000646F878029944F21C15144600EB010861
:10138000C0F6000505E000BF2378019E002B00F0A9
:101390000B8314F8010FA12B28BFA12826D2BA88ED
:1013A0003969387802FB03113044A0F1010907F1D3
:1013B000140002F0A5F94A46B9F1F00F44D34CF2FB
:1013C0003B70C8F61A10A2FB0001C8097978029B8D
:1013D0003A7800FB0133013A03EB01084FEA981019
:1013E0000026042884BF002388462EE05E2103FBEC
:1013F0000100FA88F96843F6BF33C01A00FB0211F6
:1014000007F1140002F07CF940F27007C2F2000705
:10141000B87831184A1EB2F5A07FC0F0698142F257
:101420005371CCF67151A2FB0112F978029B120A9A
:1014300002FB0133421E03EB01080026B8F1F00F56
:1014400084BF0023884654E1029BB0B2029399B254
:10145000019292B21FFA88F301F092FE7878002888
:1014600092D0002100200894CDF818800FE000BF32
:10147000089C40F2700708F10101C2F20007C8465B
:10148000079A7878013282421046BFF47DAF3A78ED
:101490000790082AC0F09F807818D40800F113063E
:1014A00004920591039400BF16F9019F07F10A0801
:1014B000C34607F1080AB9F1FF3FC8BFD346BBF8DE
:1014C000000015F8100001F033FEBBF8000005EB3A
:1014D0004000407801F02CFE5FEA4960474658BF63
:1014E0005746388815F8100001F022FE388805EBC1
:1014F0004000407801F01CFE5FEA8960474658BF13
:101500005746388815F8100001F012FE388805EBB0
:101510004000407801F00CFE5FEAC960474658BFC2
:101520005746388815F8100001F002FE388805EBA0
:101530004000407801F0FCFD5FEA0970474658BF63
:101540005746388815F8100001F0F2FD388805EB91
:101550004000407801F0ECFD5FEA4970474658BF13
:101560005746388815F8100001F0E2FD388805EB81
:101570004000407801F0DCFD5FEA8970474658BFC3
:101580005746388815F8100001F0D2FD388805EB71
:101590004000407801F0CCFD5FEAC97008BFD0463A
:1015A000B8F8000015F8100001F0C2FDB8F800000E
:1015B00005EB4000407801F0BBFD40F27007C2F23D
:1015C0000007013C7FF470AF05990398089CDDF893
:1015D0001880049A014412F007063FF451AF7818BE
:1015E00090F9144007F10A0A07F1080B5746B4F1C5
:1015F000FF3FC8BF5F463888C14615F810008846CF
:1016000001F096FD388805EB4000407801F090FD30
:10161000012E3FF42DAFE7B27806544658BF5C4622
:10162000208815F8100001F083FD208805EB4000AC
:10163000407801F07DFD022E3FF41AAFB806544603
:1016400058BF5C46208815F8100001F071FD208815
:1016500005EB4000407801F06BFD032E3FF408AF2E
:10166000F806544658BF5C46208815F8100001F073
:101670005FFD208805EB4000407801F059FD042E05
:101680003FF4F6AE3807544658BF5C46208815F83C
:10169000100001F04DFD208805EB4000407801F07E
:1016A00047FD052E3FF4E4AE7807544658BF5C462C
:1016B000208815F8100001F03BFD208805EB400064
:1016C000407801F035FD062E3FF4D2AEB80758BF82
:1016D000DA46BAF8000015F8100001F029FDBAF852
:1016E000000005EB4000407801F022FDC0E600BF9D
:1016F000029BB0B2029399B2019292B21FFA88F3A0
:10170000013401F03DFD2C2001F0EAFCF8780028BE
:101710003FF43AAE00210022CDF8188008940EE084
:1017200008F1010140F27007DDF81880C2F20007ED
:10173000079AF8780132089C8242BFF425AEB87847
:1017400007920828C0F09F8004904FEAD00B7818C9
:1017500000F1130A0591CDF80CB000BF1AF9018F02
:1017600007F10A094E4607F10804B8F1FF3FC8BF68
:101770002646308815F8100001F0DAFC308805EBB9
:101780004000407801F0D4FC5FEA48604E4658BF04
:101790002646308815F8100001F0CAFC308805EBA9
:1017A0004000407801F0C4FC5FEA88604E4658BFB4
:1017B0002646308815F8100001F0BAFC308805EB99
:1017C0004000407801F0B4FC5FEAC8604E4658BF64
:1017D0002646308815F8100001F0AAFC308805EB89
:1017E0004000407801F0A4FC5FEA08704E4658BF04
:1017F0002646308815F8100001F09AFC308805EB79
:101800004000407801F094FC5FEA48704E4658BFB3
:101810002646308815F8100001F08AFC308805EB68
:101820004000407801F084FC5FEA88704E4658BF63
:101830002646308815F8100001F07AFC308805EB58
:101840004000407801F074FC5FEAC87008BFA14610
:10185000B9F8000015F8100001F06AFCB9F80000B2
:1018600005EB4000407801F063FC40F27007C2F2E3
:101870000007BBF1010B7FF471AF05990398DDF808
:1018800018800144049810F007093FF451AF78180C
:1018900090F9144007F10A0A564607F1080BB4F113
:1018A000FF3FC8BF5E463088884615F8100001F03B
:1018B0003FFC308805EB4000407801F039FCB9F17D
:1018C000010F3FF42DAFE6B27006544658BF5C4698
:1018D000208815F8100001F02BFC208805EB400053
:1018E000407801F025FCB9F1020F3FF419AFB006C2
:1018F000544658BF5C46208815F8100001F018FCCB
:10190000208805EB4000407801F012FCB9F1030F8C
:101910003FF406AFF006544658BF5C46208815F8E1
:10192000100001F005FC208805EB4000407801F034
:10193000FFFBB9F1040F3FF4F3AE3007544658BF34
:101940005C46208815F8100001F0F2FB208805EBBA
:101950004000407801F0ECFBB9F1050F3FF4E0AE38
:101960007007544658BF5C46208815F8100001F0F7
:10197000DFFB208805EB4000407801F0D9FBB9F18E
:10198000060F3FF4CDAEB00758BFDA46BAF80000F4
:1019900015F8100001F0CCFBBAF8000005EB400090
:1019A000407801F0C5FBBBE609B0BDE8F08F000050
:1019B0002DE9F04FC1B0002A00F0DA8017785FB34C
:1019C0003C46134604E000BF01269C5D33442CB323
:1019D00066B2B6F1FF3FF7DC04F0E006C02E07D197
:1019E0005E7806F0C006802E02D10226EDE700BF29
:1019F00004F0F006E02E40F0BF805E7806F0C006EE
:101A0000802E40F0B9809E7806F0C006802E40F00F
:101A1000B3800326D9E700BF0023A4E00023002FF2
:101A200000F0A18044F226190DF1040EC0F6000961
:101A300015464FF0000800BF7CB2002C06D408F118
:101A400001080EF80370013384E000BF07F0E004E2
:101A5000C02C07D13F270EF80370013308F10208AC
:101A600078E000BF6C78AD7804F03F04A40144EA4C
:101A7000073405F03F0504EB050B0EEB030A0027C6
:101A800039F807601FFA8BF5AE4209EB07045AD00C
:101A9000B4F804C0AC4537D02689AE4236D0A6890A
:101AA000AE4235D0268AAE4234D0A68AAE4233D07A
:101AB000268BAE4232D0A68BAE4231D0268CAE42BF
:101AC00030D0A68CAE422FD0268DAE422ED0A68D21
:101AD000AE422DD0268EAE422CD0A68EAE422BD05A
:101AE000268FAE422AD0A68FAE4229D0B4F84060ED
:101AF000AE4227D04437B7F5887FC1D101333F27A5
:101B00008AF8007023E000BF04341CE008341AE0B7
:101B10000C3418E0103416E0143414E0183412E0D9
:101B20001C3410E020340EE024340CE028340AE0A9
:101B30002C3408E0303406E0343404E0383402E079
:101B40003C3400E0403467880233AAF8007008F1A2
:101B5000030800BF1FFA88F7D75D27B1FE2B12FAE2
:101B600088F5FFF469AF01AA0027D754FFF7F4FB0B
:101B700041B0BDE8F08F00BF41B0BDE8F04FFFF7C6
:101B8000EBBB00007047000072B600BFFEE700002C
:101B9000B0B5044600F0EEF8054640F20000C2F28F
:101BA00000000078611C18BF044400BF00F0E2F898
:101BB000401BA042FAD3B0BD2DE9F04F83B000F135
:101BC000200200F13E4741F60045009207F1FF7701
:101BD000C4F2020508224FEAB726A84208BF07222E
:101BE00000254FF000084FF00009072E38BF4FEADC
:101BF000B72201920AE000BF09F1010908F10208C9
:101C0000B9F1100F05F1040500F0A2800F68012260
:101C100002FA09FE17EA0E0AEED0D1F804C0032238
:101C20000CF003077E1E02FA08F4012E6FEA040B83
:101C300012D88468CE6804EA0B0406FA08F6344326
:101C40008460446824EA0E06CCF3001404FA09F414
:101C50002643466004E000BF032F01D103271EE0A6
:101C6000C6688C6806EA0B0604FA08F42643022FBD
:101C7000C66014D16FF00302009E02EA590756F8BD
:101C800007C005F01C040F220B69A2402CEA0202D7
:101C9000A3401A43F251D1F804C00CF003070268C4
:101CA00007FA08F302EA0B021A431CF4403F0260F1
:101CB000A2D0002243F644030292C4F202031A683F
:101CC00043F6004442F480421A601A68C4F20104E8
:101CD00002F480420292029A29F003024FF6084C65
:101CE0002244CFF6FF7C52F80C3005F00C070F268B
:101CF000BE40B343019E06FA07F73B4342F80C305F
:101D0000A2684B6842EA0A0743F60C4CDE0258BF51
:101D100022EA0A07A760C4F2010CDCF800209E0248
:101D200042EA0A0758BF22EA0A07CCF80070626844
:101D30009E0342EA0A0758BF22EA0A076760226840
:101D4000DB0342EA0A0758BF22EA0A07276053E783
:101D500003B0BDE8F08F0000426902EA010391433D
:101D600041EA034181617047002A08BF090481618B
:101D70007047000040F24850C2F20000006870470F
:101D800040F2000040F24851C2F20000C2F20001ED
:101D900000780A68104408607047000080B543F678
:101DA0000040C4F20200016841F400710160016862
:101DB00041F480610160016841F480710160032099
:101DC00000F074F80F2000F005F800F027F800206C
:101DD00080BD000070B540F20006C2F2000640F27D
:101DE00008013278C2F200014FF47A730968B3FB3C
:101DF000F2F20446B1FBF2F1084600F095FE0F2C1A
:101E00004FF0010508D838B94FF0FF3021460022C5
:101E1000002500F01FF87460284670BD82B00020D5
:101E200043F640010190C4F202014A6842F4804244
:101E30004A604A6802F480420192019A0090086860
:101E400040F080500860086800F0805000900098D2
:101E500002B0704710B54EF60C5CCEF2000CDCF808
:101E60000030C3F3022E8EF00704042C28BF042494
:101E7000BEF103034FF0FF3E0EFA04F438BF002317
:101E8000A14399400EFA03F39A43114300F00F0265
:101E900000F160430901043A03F5644362440028F9
:101EA00048BF02F10C03197010BD00004EF60C5132
:101EB000CEF200010A684FF6FF031A4060F30A22CF
:101EC00042F0806040F0FD7008607047002804BF59
:101ED000012070472DE9F04143F60808C4F20208DA
:101EE0000446D8F8F8030D4600F00700814207D9F0
:101EF00088F8F853D8F8F80300F00700A84277D123
:101F00002068810717D5410705D5D8F8001041F49E
:101F1000E051C8F80010010705D5D8F8001041F4C9
:101F20006041C8F80010D8F80010A26821F0F00154
:101F30001143C8F80010C00740D1D8F8F80300F0EA
:101F40000700854207D288F8F853D8F8F80300F064
:101F50000700A8424CD12068410707D5D8F80010E7
:101F6000E26821F4E0511143C8F80010000708D5D9
:101F7000D8F80000216920F4604040EAC100C8F8A8
:101F8000000000F055F8D8F8001044F20C12C1F32C
:101F90000311C0F60002515C40F2080220FA01F180
:101FA00040F20400C2F200000068C2F200021160B8
:101FB000FFF710FF0020BDE8F08100BF6068811EC0
:101FC000022907D258F8081C89015CBF0120BDE82E
:101FD000F08111E0012807D158F8081C89035CBF83
:101FE0000120BDE8F08107E058F8081C890703D4F8
:101FF0000120BDE8F08100BFD8F8001021F00301F6
:102000000843C8F80000FFF7B5FE064641F28837DE
:10201000D8F80000616800F00C00B0EB810F8CD0A4
:10202000FFF7A8FE801BB842F2D90320BDE8F0817B
:1020300010B543F60404C4F202046168C1F38101DF
:1020400042F20040C0F2F400DFE801F002040A02AC
:1020500010BD00BF41F20020C0F27A0010BD00BFE9
:10206000216801F03F02216823684902C3F3881107
:1020700006D4A1FB00010023FEF724F907E000BF0E
:1020800041F20020C0F27A004843B0FBF2F0216830
:102090000222C1F3014102EB4101B0FBF1F010BD9E
:1020A000002804BF012070472DE9F04182B00446AA
:1020B000007843F60006C007C4F202060CD0B068F0
:1020C00000F00C00042840F081803068800303D5C4
:1020D0006068002800F06881207880071BD5B06810
:1020E00010F00C0F09D0B06800F00C00082840F088
:1020F00087807068400200F183803068800703D5D4
:10210000E068012840F050813068216920F0F80033
:1021100040EAC10030602078000713D420784007DF
:102120002AD4A569002D00F03A81B06800F00C00B7
:10213000082840F0A580012D40F00E81012002B05A
:10214000BDE8F0816069002800F082800020C4F2C0
:1021500047200121C0F8801EFFF70CFE054600BF96
:10216000706F8007DAD4FFF705FE401B0228F7D90D
:10217000032002B0BDE8F081306C5FEAC0080AD4E9
:1021800000200190306C40F080503064306C00F0E2
:1021900080500190019847F20007C4F200073868A8
:1021A000C00547D4386840F480703860FFF7E2FD1E
:1021B000054600BF3868C0053CD4FFF7DBFD401B77
:1021C0000228F7D9032002B0BDE8F081B06800F022
:1021D0000C00082803D1706840023FF576AF6168B3
:1021E0003068B1F5803F07D0B1F5A02F40F09A805C
:1021F00040F480203060306840F4803030609AE0F5
:10220000E068002840F20000C4F247205CD00121C1
:102210000160FFF7AFFD0546306880073FF574AFFA
:10222000FFF7A8FD401B0228F6D9032002B0BDE845
:10223000F08100BFA168306F012905D0052955D173
:1022400040F004003067306F40F00100306756E026
:102250000020C4F247200021C0F8801EFFF78AFD4D
:10226000054600BF706F80077FF558AFFFF782FD0E
:10227000401B0228F6D9032002B0BDE8F08100BF60
:102280000027C4F2472700203866FFF773FD022DB0
:1022900005460DD13068800140F18A80FFF76AFD64
:1022A000401B02284FF00300F4D902B0BDE8F081D2
:1022B0003068800173D5FFF75DFD401B02284FF0A9
:1022C0000300F5D9F1E700BF00210160FFF752FDDF
:1022D000054600BF306880077FF51DAFFFF74AFD58
:1022E000401B02284FF00300F4D9DEE720F0010084
:1022F0003067306F002920F0040030677AD0FFF794
:1023000039FD054641F28837306F800700F184803F
:10231000FFF730FD401BB842F6D9032002B0BDE8FC
:10232000F08100BF20F4803030603068002920F454
:10233000802030607AD0FFF71DFD054630688003AD
:102340003FF5CAAEFFF716FD401B6428F6D90320FF
:1023500002B0BDE8F08100BF7068E16900F480025E
:102360008A4221D1216A00F03F028A421CD147F6FD
:10237000C071626A0140B1EB821F15D1A16A4FF6AC
:10238000FF73C903994300F44032A1F580318A42BA
:102390000AD1E16A00F07060B0EB016F04D1002057
:1023A00002B0BDE8F08100BF012002B0BDE8F081BD
:1023B00004F11C052FCD084340EA8210D9034FF6E3
:1023C000FF729143A1F5803140EA056008437060D7
:1023D00001203866FFF7CEFC044600BF306880015C
:1023E000DDD4FFF7C7FC001B02284FF00300F5D92E
:1023F0005BE700BFFFF7BEFC054641F2883700BF30
:10240000306F800708D5FFF7B5FC401BB8424FF08E
:102410000300F5D949E700BFB8F1000F3FF581AEE1
:10242000306C20F0805030647BE600BFFFF7A2FCE8
:10243000054600BF306880037FF54EAEFFF79AFC7B
:10244000401B64284FF00300F4D92EE770B528B183
:10245000416A29B100210161142106E0012070BD0B
:102460004168B1F5827F02D01C2100224250002633
:10247000866290F8511029B980F85060054600F046
:102480003DF82846022180F8511090E82E0002F411
:1024900082720C6803F4044324F040040C601A4474
:1024A00005F4006305691A4405F0020345691A44FE
:1024B00005F001038569C4691A4405F400731A44E0
:1024C00004F03803046A1A4404F08003846A1A434F
:1024D00004F400531A430A60436A042202EA1542D4
:1024E00003F010031A444A60CA6922F40062CA6108
:1024F0000121466580F85110304670BD80B586B028
:1025000043F600010068C4F20001002288420592EF
:10251000CDE903220292019202D006B080BD00BF35
:1025200043F630000092C4F20200036943F4804392
:102530000361036903F480430093009B00920368E6
:1025400043F002030360006800F00200009000986E
:102550004FF4604001900220CDE902020320049074
:102560000520059001F5E63001A9FFF725FB06B02F
:1025700080BD00002DE9F04184B01D4616460F468F
:102580000446FFF7F7FB94F8511001290ED180465D
:10259000002F4FF0010018BF002E03D104B0BDE89A
:1025A000F08100BF94F85000012803D1022004B04C
:1025B000BDE8F081012084F850000320002184F858
:1025C000510061652763A686E686A163A187E1873E
:1025D000A0682164B0F5004F2068616407D10168EC
:1025E00021F040010160016841F48041016001680F
:1025F000490603D4016841F0400101606168731E1F
:10260000E268B1FA81F1B3FA83F349095B09B2F5E3
:10261000006F41EA030139D131B137F8021BC160C3
:102620002763E08E0138E086E08E002870D0681CB9
:102630000BD11AE0216B31F8022BC2602163E08ECE
:102640000138E086E08E002862D020688168890722
:10265000F0D4FFF78FFBA0EB0800A842F2D338E0DC
:10266000FFF788FBE08E002852D020688168890738
:10267000F6D5216B31F8022BC2602163E08E013860
:10268000E086E08E0028F0D142E000BF39B1397811
:102690000173206B01302063E08E0138E086E08E0C
:1026A000B0B3681C0BD123E0216B09780173206B58
:1026B00001302063E08E0138E086E08E40B3206870
:1026C00081688907F0D4FFF755FBA0EB0800A8420A
:1026D000F3D3012084F85100002084F85000032037
:1026E00004B0BDE8F08100BFFFF744FBE08E78B195
:1026F000206881688907F7D5216B09780173206B01
:1027000001302063E08E0138E086E08E0028EFD1B2
:102710002046022101222B46CDF8008000F0ECFB80
:10272000E0B1606D40F02000606520206065A06829
:1027300038B9002002902068C16802918068029038
:102740000298012084F85100002084F85000606D48
:10275000002818BF012004B0BDE8F08140F2080055
:10276000C2F20000006849F68171C1F25E61A0FB0F
:102770000101480D4FF47A71484303906068B0F549
:10278000827F0BD12046802100222B46CDF800808D
:1027900000F0B2FB0028C4D1C9E700BF03980028AD
:1027A000C5D0039801380390206881680906BED51A
:1027B00003990029BBD00399013903918168090667
:1027C000B5D503990029B2D00399013903918168E5
:1027D0000906ACD503990029A9D0039901390391C1
:1027E00080680006DAD4A2E72DE9F04383B01E46E4
:1027F00015460F460446FFF7BDFA94F8511081467E
:10280000012909D1002F4FF0010018BF002D0FD171
:1028100003B0BDE8F08300BF6068B0F5827F0DD1E2
:1028200004294FF00200F3D1A1680029EAD0EFE7B4
:10283000002EEDD094F85000012803D1022003B0FF
:10284000BDE8F083012084F8500094F85100002185
:1028500004281CBF052084F851006165A563E68744
:10286000A6872763E6862068A686216461640168DE
:10287000490603D4016841F0400101606168731E9C
:10288000E268B1FA81F1B3FA83F3DDF828804909EF
:102890005B09B2F5006F41EA030165D131B137F848
:1028A000021BC1602763E08E0138E086012518F124
:1028B000010032D102E000BFFFF75CFAE08E18B9E8
:1028C000E08F002800F0B8802068816889070CD567
:1028D000E18E51B1012D08D1216B002531F8022B79
:1028E000C2602163E18E0139E1868168C907E3D0C6
:1028F000E18F0029E0D0C068A16B012521F8020B0F
:10290000A163E08F0138E087D6E700BFFFF732FA16
:10291000A0EB0900404580F0A580E08E18B9E08F5B
:10292000002800F089802068816889070CD5E18E35
:1029300051B1012D08D1216B002531F8022BC26065
:102940002163E18E0139E1868168C907DED0E18F1C
:102950000029DBD0C068A16B012521F8020BA1631F
:10296000E08F0138E087D1E739B139780173206B06
:1029700001302063E08E0138E086012518F1010066
:1029800032D101E0FFF7F6F9E08E10B9E08F0028B0
:1029900052D02068816889070ED5E18E61B1012D82
:1029A0000AD1216B002509780173216B2068013160
:1029B0002163E18E0139E1868168C907E2D0E18FA8
:1029C0000029DFD0C068A16B01250870A06B013021
:1029D000A063E08F0138E087D4E700BFFFF7CAF9B2
:1029E000A0EB090040453DD2E08E08B9E08F18B356
:1029F0002068816889070ED5E18E61B1012D0AD169
:102A0000216B002509780173216B20680131216356
:102A1000E18E0139E1868168C907DFD0E18F0029A5
:102A2000DCD0C068A16B01250870A06B0130A063E9
:102A3000E08F0138E087D1E720460221012243469A
:102A4000CDF8009000F058FAB0B1606D40F0200071
:102A5000606520206065002084F85000012003B0EC
:102A6000BDE8F083012084F85100002084F8500074
:102A7000032003B0BDE8F08340F20800C2F200007A
:102A8000006849F68171C1F25E61A0FB0101480D49
:102A90004FF47A71484302906068B0F5827F0BD1A1
:102AA0002046802100224346CDF8009000F024FA11
:102AB0000028CAD121E000BF0298F0B10298013885
:102AC000029020688168090617D50299A9B1029978
:102AD00001390291816809060FD5029969B10299FD
:102AE000013902918168090607D5029929B1029935
:102AF0000139029180680006DED4A06838B9002050
:102B000001902068C16801918068019001980120BE
:102B100084F85100002084F85000606D002818BF30
:102B2000012003B0BDE8F083411E0020B0EB116F1F
:102B30001CBF012070474EF21002CEF2000251601D
:102B40004EF62351CEF20001F0230B700721906066
:102B500011607047FEE70000F0B581B040F2441309
:102B60000C46010A0022C2F2000340F2FE3600BF0A
:102B70009D186870A970E87029716871A971E87171
:102B800029726872A972E87229736873A973E8736D
:102B900029746874A974E87429756875A975E8754D
:102BA00029766876A976E87629776877A977E8772D
:102BB00002F11E0599542032B542D9D3BCB140F27E
:102BC000EC0540F24416C2F20005C2F2000600BF56
:102BD0002746B4F5007F28BF4FF400777A002846D7
:102BE00031464FF0FF33FFF7C5FCE41BF0D101B0D5
:102BF000F0BD000010B540F60044C4F202042046C7
:102C000020210122FFF7B0F8204640210122FFF7E2
:102C1000ABF8204610210122FFF7A6F820468021BC
:102C20000122BDE81040FFF79FB8000080B582B0D8
:102C30008DF80700FF208DF8060040F2EC004FF001
:102C4000FF3CC2F200000DF107010DF10602012365
:102C5000CDF800C0FFF7C8FD9DF8060002B080BDAA
:102C600080B582B08DF80700FF208DF8060040F295
:102C7000EC004FF0FF3CC2F200000DF107010DF136
:102C800006020123CDF800C0FFF7AEFD02B080BD03
:102C90002DE9F04F81B02DED028B8AB040F2700526
:102CA000C2F200051746B0EE408A169C2E7A0E2A14
:102CB000A8BF0E2795F80AB09846F0EE608A8946BC
:102CC000012A824604DB684639462022FDF7AEFC25
:102CD00068460021C15544F2582744F24620072C8B
:102CE000C0F60007C0F600002E816E811DD844F2A8
:102CF000782144F23622C0F60001C0F6000257F8EF
:102D000024C051F8241032F814200C23BE46A71D0D
:102D100030F8140003EB44032F707746C5E9031C19
:102D2000AA806B70E880EB70AB706A4650464946EB
:102D3000FEF712FB072C2E81A5F80AB01FD844F22B
:102D4000782144F2362244F24626C0F60001C0F64D
:102D50000002C0F6000657F8240051F8241032F89B
:102D600014200C2336F8146003EB4403A71DC5E9B7
:102D70000310AA806B702F70EE80EB70AB700DF1BA
:102D80000F070CA138464246FDF714FB0DF119055B
:102D900053EC182B28463946FDF70CFB50464946A4
:102DA0002A46FEF7D9FA0AB0BDEC028B01B0BDE8A5
:102DB000F08F00BF25252E2564660000F0B587B092
:102DC000002543F630000695CDE90455CDE90255BE
:102DD0000195C4F20200016840F6004441F0800110
:102DE00001600168C4F2020401F0800101910199BF
:102DF00001950168012241F0010101600168F82696
:102E000001F001010191019901950168012741F04B
:102E1000080101600068F82100F0080001900198A5
:102E20002046FEF7A1FF0220059002A92046CDE929
:102E300002670495FEF7C0FE07B0F0BD80B540F212
:102E4000EC0043F60001C2F20000C4F200014FF4AE
:102E50008272002380E80E0000F114014FF4007C20
:102E60004FF0080E81E808500A21C0E90333C0E999
:102E70000833C0E90A31FFF7E9FA002808BF80BD2E
:102E8000BDE88040FEF780BEFEE70000FEE70000E0
:102E90007047000040F27003C2F20003072A198154
:102EA000588188BF7047B0B544F25820C0F6000082
:102EB00044F2782150F822C0C0F6000144F23620D6
:102EC00044F2462551F822E0C0F600000C21C0F67D
:102ED000000530F8120001EB4201941D35F8122074
:102EE000C3E903EC988059701C70DA80D97099702E
:102EF000BDE8B040704700002DE9F04381B0089C68
:102F0000984615460E468146FEF734FF201A00EB20
:102F10000804FEF72FFF40F20801C2F20001096821
:102F2000C1F3CB3161430091D9F800108A68324077
:102F3000921BB2FA82F25209954203D1002001B0ED
:102F4000BDE8F083074618F101000ED130E000BF64
:102F5000009801380090D9F8000080683040801B4C
:102F6000B0FA80F040098542E8D0FEF703FFC01BAD
:102F7000A04227D200980028EAD10024EBE700BF46
:102F800088683040801BB0FA80F040098542D5D077
:102F900088683040801BB0FA80F040098542CDD06F
:102FA00088683040801BB0FA80F040098542C5D067
:102FB00088683040801BB0FA80F040098542DFD13C
:102FC000BCE700BFD9E900014268B1F5827F22F079
:102FD000E00242600BD1D9F80810B1F5004F02D0E1
:102FE000B1F5806F03D1016821F040010160D9F88B
:102FF0002810B1F5005F07D1016821F4005101608C
:10300000016841F400510160012089F8510000205D
:1030100089F85000032001B0BDE8F083704700003C
:10302000FEF7AEBE70B592B006AC20463021FDF77B
:1030300005FB002543F640000595CDE90355CDE994
:1030400001550095C4F202000168022641F080514A
:103050000160006800F080500090009847F2000086
:103060000095C4F20000016841F4804101600068ED
:10307000A82100F4804000900098012006904FF4B1
:10308000803007904FF480000D9004200E90119036
:1030900020460C96CDE90F16FFF702F810B172B674
:1030A000FEE700BF0F20CDE901064FF4A0500490C9
:1030B0004FF48050059001A805210395FEF706FF07
:1030C00010B172B6FEE700BF12B070BD4EF6885068
:1030D000CEF20000016841F4700101607047000009
:1030E000F0B581B040F24456C2F20006317840F6A5
:1030F00000440546C4F2020431B9204620210022D2
:10310000FEF732FE012030702046102100220027F9
:10311000FEF72AFE2846FFF7A3FD3078012805D1E7
:10312000204620210122FEF71FFE377001B0F0BDBE
:1031300070B540F24456C2F20006317840F60044C1
:103140000546C4F2020431B9204620210022FEF7D0
:103150000BFE01203070204610210122FEF704FEF4
:103160002846FFF77DFD3078012818BF70BD204646
:1031700020210122FEF7F8FD0020307070BD000014
:103180002DE9F04381B040F24456C2F20006894670
:10319000317840F60045984617460446C4F20205C9
:1031A00031B9284620210022FEF7DEFD01203070D3
:1031B000284610210022FEF7D7FD2A20FFF750FDF8
:1031C000284610210122260AFEF7CEFD3046FFF7E1
:1031D00047FD284610210122FEF7C6FDE0B2FFF7A9
:1031E0003FFD2846102101223C0AFEF7BDFD204686
:1031F000FFF736FD284610210122FEF7B5FDF8B293
:10320000FFF72EFD284610210022FEF7ADFD2B20F2
:10321000FFF726FD2846102101224FEA1924FEF768
:10322000A3FD2046FFF71CFD284610210122FEF7D2
:103230009BFD5FFA89F0FFF713FD2846102101225C
:103240004FEA1824FEF790FD2046FFF709FD2846B7
:1032500010210122FEF788FD5FFA88F0FFF700FDDC
:10326000284610210022FEF77FFD2C2001B0BDE88A
:10327000F043FFF7F5BC000070B544F21C11C0F636
:10328000000131F8100040F6004400BA050C00209F
:103290000021EF2240F23F13C4F202040026FFF7A0
:1032A0006FFF204610210122FEF75EFD28464FF4F5
:1032B0009631FFF751FC40F24455C2F200052878E0
:1032C000012818BF70BD204620210122FEF74CFDC9
:1032D0002E7070BD70B540F60044C4F20204204662
:1032E00008210022FEF740FD6420FEF751FC204635
:1032F000082101220126FEF737FD6420FEF748FC75
:1033000040F24455C2F20005287828B92046202111
:103310000022FEF729FD2E702046102100220026F3
:10332000FEF722FD1120FFF79BFC7820FEF730FC12
:10333000204610210022FEF717FD3620FFF790FCF3
:10334000204610210122FEF70FFD0020FFF788FC28
:10335000204610210022FEF707FD3A20FFF780FCEF
:10336000204610210122FEF7FFFC5520FFF778FCD4
:10337000204610210022FEF7F7FCB220FFF770FC78
:10338000204610210122FEF7EFFC0C20FFF768FC1D
:10339000204610210122FEF7E7FC0C20FFF760FC1D
:1033A000204610210122FEF7DFFC0020FFF758FC29
:1033B000204610210122FEF7D7FC3320FFF750FCF6
:1033C000204610210122FEF7CFFC3320FFF748FCF6
:1033D000204610210022FEF7C7FCB720FFF740FC73
:1033E000204610210122FEF7BFFC3520FFF738FCF4
:1033F000204610210022FEF7B7FCBB20FFF730FC6F
:10340000204610210122FEF7AFFC1F20FFF728FC09
:10341000204610210022FEF7A7FCC020FFF720FC69
:10342000204610210122FEF79FFC2C20FFF718FCFC
:10343000204610210022FEF797FCC220FFF710FC67
:10344000204610210122FEF78FFC0120FFF708FC27
:10345000204610210022FEF787FCC320FFF700FC66
:10346000204610210122FEF77FFC1220FFF7F8FB17
:10347000204610210022FEF777FCC420FFF7F0FB66
:10348000204610210122FEF76FFC2020FFF7E8FB09
:10349000204610210022FEF767FCC620FFF7E0FB64
:1034A000204610210122FEF75FFC0F20FFF7D8FB1A
:1034B000204610210022FEF757FCD020FFF7D0FB5A
:1034C000204610210122FEF74FFCA420FFF7C8FB85
:1034D000204610210122FEF747FCA120FFF7C0FB88
:1034E000204610210022FEF73FFCE020FFF7B8FB4A
:1034F000204610210122FEF737FCD020FFF7B0FB59
:10350000204610210122FEF72FFC0D20FFF7A8FB1B
:10351000204610210122FEF727FC1420FFF7A0FB14
:10352000204610210122FEF71FFC0B20FFF798FB1D
:10353000204610210122FEF717FC0B20FFF790FB1D
:10354000204610210122FEF70FFC0720FFF788FB21
:10355000204610210122FEF707FC3A20FFF780FBEE
:10356000204610210122FEF7FFFB4420FFF778FBE5
:10357000204610210122FEF7F7FB5020FFF770FBD9
:10358000204610210122FEF7EFFB0820FFF768FB21
:10359000204610210122FEF7E7FB1320FFF760FB16
:1035A000204610210122FEF7DFFB1320FFF758FB16
:1035B000204610210122FEF7D7FB2D20FFF750FBFC
:1035C000204610210122FEF7CFFB3220FFF748FBF7
:1035D000204610210022FEF7C7FBE120FFF740FB49
:1035E000204610210122FEF7BFFBD020FFF738FB59
:1035F000204610210122FEF7B7FB0D20FFF730FB1C
:10360000204610210122FEF7AFFB1420FFF728FB14
:10361000204610210122FEF7A7FB0B20FFF720FB1D
:10362000204610210122FEF79FFB0B20FFF718FB1D
:10363000204610210122FEF797FB0720FFF710FB21
:10364000204610210122FEF78FFB3A20FFF708FBEE
:10365000204610210122FEF787FB4420FFF700FBE4
:10366000204610210122FEF77FFB5020FFF7F8FAD9
:10367000204610210122FEF777FB0820FFF7F0FA21
:10368000204610210122FEF76FFB1320FFF7E8FA16
:10369000204610210122FEF767FB1320FFF7E0FA16
:1036A000204610210122FEF75FFB2D20FFF7D8FAFC
:1036B000204610210122FEF757FB3220FFF7D0FAF7
:1036C000204610210022FEF74FFB2020FFF7C8FA0A
:1036D000204610210022FEF747FB2920FFF7C0FA01
:1036E0001420FEF755FA2878012818BF70BD20462F
:1036F00020210122FEF738FB2E7070BDFEE700008E
:10370000F0B581B040F60044C4F2020415460F46FD
:103710000646204640210022FEF726FB0320FFF745
:103720009FFAC7F30740FFF79BFAC7F30720FFF79D
:1037300097FAF8B2FFF794FA3DB1013EFF20FFF788
:1037400075FA013D06F8010FF8D12046402101220B
:1037500001B0BDE8F040FEF707BB0000000000002C
:1037600082B040F60004C4F20204FEF717FBFFF734
:1037700059FCFFF723FBFFF761FBFFF73BFAFFF76D
:10378000A9FD04F5806080210122FEF7EDFAFDF726
:10379000FBFC38B30020FFF76FFD04200021062258
:1037A0000425FFF777FB18A20A200A21FEF700F98B
:1037B000022000210422FFF76DFB9FED110B0A2070
:1037C0003C21082204230095FFF762FA0320002120
:1037D0000222FFF75FFB10A20A206421FDF7BCFD67
:1037E00004E000BF0120FFF747FD00BF20464FF473
:1037F0000051FEF7B1FA4FF4FA70FEF7C9F9F5E798
:103800006E861BF0F9210940E5B18FE5B995E6B563
:103810008BE8AF9500000000544654204F4B000049
:103820005FEA400C08BF91F0000F4FEA8C234FEA8B
:10383000C12243EA51514FEA1C5018BF00F5F04035
:103840004FEA300018BF41F000415FEA6C5C00F0C5
:103850002980BCF1FF3F08BF40F080407047130C47
:1038600006BF12044FF0100C4FF0000C130E04BFF3
:1038700012020CF1080C130F04BF12010CF1040C1E
:10388000930F04BF92000CF1020CD30F04BF52003F
:103890000CF1010C11464FF00002A0F11F00A0EB4B
:1038A0000C00704711F0004F08BF704731F0004125
:1038B0003FF4D5AF0B0C06BF09044FF0100C4FF0CE
:1038C000000C0B0E04BF09020CF1080C0B0F04BF17
:1038D00009010CF1040C8B0F04BF89000CF1020CE0
:1038E000CB0F04BF49000CF1010CCCF1200322FAEC
:1038F00003F341EA030102FA0CF2A0EB0C0000F121
:103900000100704723F07F4720F07F4C80EA0300DE
:1039100000F00040ACEB070303F57C5303F1FF0319
:103920002DE9804909B44FEA144324EA03484FEAD9
:10393000154B25EA0B4E0FF2042606EB13273E78B3
:1039400003FB0667C7F5000707FB06F64FEAD646F6
:1039500006F102064FEA543707FB066CCCF1005C17
:103960004FEA1C472CEA074C0CFB06F507FB06F454
:1039700004EB15464FEA961649085FEA320234BF57
:1039800000204FF000404FEAD13706FB07FC4FEA1A
:103990001C4C0CFB0BF7D21B03FB0CF761EB070174
:1039A0000CFB0EF7B0EB074072EB17420CFB08F76D
:1039B00034BFA2EB0742B2EB074261EB17414FEA7B
:1039C0000C444FEA910706FB07FC4FEA1C4C0CFB2A
:1039D0000BF7B0EBC74072EB573203FB0CF734BF69
:1039E000A2EBC742B2EBC74261EB57310CFB0EF7BB
:1039F000B0EBC70072EB57720CFB08F734BFA2EBB9
:103A0000C702B2EBC70261EB57714FEA816141EA2D
:103A100092114FEA826242EA90124FEA806004EB10
:103A2000CC04039F4FEAD13706FB07FC4FEA1C4C3E
:103A30000CFB0BF7D21B03FB0CF761EB07010CFB34
:103A40000EF7B0EB074072EB17420CFB08F734BFE0
:103A5000A2EB0742B2EB074261EB17414FEA8C55EC
:103A600004EB9C244FEA910706FB07FC4FEA1C4C31
:103A70000CFB0BF7B0EBC74072EB573203FB0CF7B4
:103A800034BFA2EBC742B2EBC74261EB57310CFB2C
:103A90000EF7B0EBC70072EB57720CFB08F734BFA0
:103AA000A2EBC702B2EBC70261EB57714FEA81612B
:103AB00041EA92114FEA826242EA90124FEA806034
:103AC00015EB4C2544F100044FEAD13706FB07FC07
:103AD0004FEA1C4C0CFB0BF7D21B03FB0CF761EB02
:103AE00007010CFB0EF7B0EB074072EB17420CFB23
:103AF00008F734BFA2EB0742B2EB074261EB174174
:103B00004FEA813141EA92414FEA823242EA9042E1
:103B10004FEA80304FEA0C7615EB1C1544F1000497
:103B200048EA03434EEA0B484FF0000EB2EB080C94
:103B300071EB030724BF624639464EEB0E0E4FF081
:103B4000000B0018524149414BEB0B0BB2EB080C38
:103B500071EB03077BF1000B24BF624639464EEB45
:103B60000E0E4FF0000B0018524149414BEB0B0B6E
:103B7000B2EB080C71EB03077BF1000B24BF62462C
:103B800039464EEB0E0E51EA020718BF46F0010609
:103B900016EB0E7655F1000254F1000103D5BDE895
:103BA0008901BDE80088BDE88901BDE80048B61973
:103BB000524141EB0101A3F10103704780807F7EF8
:103BC0007D7C7B7A79787776767574737271717093
:103BD0006F6E6E6D6C6C6B6A6A6968686766666545
:103BE0006464636362616160605F5F5E5E5D5D5CD3
:103BF0005C5B5B5A5A595958585757565655555544
:103C00005454535352525251515050504F4F4F4EA3
:103C10004E4D4D4D4C4C4C4B4B4B4A4A4A494949F1
:103C20004848484747474746464645454544444433
:103C30004443434343424242424141419C46002B5C
:103C400030D477002BD04FEA37071CB503B44FF0C0
:103C500010004FF01001BAF1000F06D0BCF1000FB8
:103C6000DCBF40F0080040F008014FF000000FBC3E
:103C7000BDE810400BF1010BBBF1010F08BF5FEA7B
:103C8000170722BF12F1010211F101014FF00041AB
:103C900043F1000300F0004043EA00007047F9D30D
:103CA0005708D0E746EA06464FEA164613F1400F9A
:103CB0001FDD13F1200FDFBF16430A46002120331A
:103CC0005B42BED0C3F1200746EA06464FEA1646DD
:103CD00002FA07F746EA070622FA03F2C3F12007C1
:103CE00001FA07F742EA070221FA03F14FF0000355
:103CF000A7E746EA020646EA06464FEA164646EABD
:103D00000106BCBF46EA0646360C4FF000034FF0F2
:103D100000024FF0000194E72DE9804C70B49A4600
:103D2000934691E8380007C831EA400C48BF34EAAE
:103D3000430C03D5FFF7E6FDFFF780FFF0BCBDE8BD
:103D4000008C2DE9804C70B49A46934691E8380077
:103D500007C810F0804F08BF13F0804F03D100F068
:103D600005F8FFF76BFFF0BCBDE8008C20F07F4743
:103D700023F07F4C80EA030000F0004007EB0C03C7
:103D8000A3F57C53A3F1FE0392F0000F00F0B38083
:103D900095F0000F00F077802DE901494FEA1140BE
:103DA00021EA00484FEA144624EA064700FB06FCD5
:103DB00008FB06F607FB08F818EB06484CEB164C18
:103DC00000FB07F718EB07484CEB17404FEA124B84
:103DD00022EA0B4E4FEA154625EA06470BFB06FC86
:103DE0000EFB06F607FB0EFE1EEB064E4CEB164CCA
:103DF0000BFB07F71EEB074E4CEB174B18EB0B08B2
:103E000040F1000018EB0E0B58EB000840F10000E9
:103E10008F1A4FF000014FF000063CBFC943661BEC
:103E200014BFB5EB040C00213CBFC943F61B4FEA9D
:103E3000174427EA04454FEA1C472CEA074C04FBC9
:103E4000076205FB07F70CFB05F616EB074642EB8E
:103E5000174204FB0CFC16EB0C4642EB1C421BEB1E
:103E6000060658EB020241414EEA8E0E46EA9E06D5
:103E700001D5BDE80189B619524141EB0101A3F119
:103E80000103BDE801894FEA144524EA05464FEADB
:103E9000114721EA074C05FB07F406FB07F70CFB6B
:103EA00006F111EB074144EB174405FB0CFC11EB49
:103EB0000C4144EB1C444FEA124722EA074C05FB35
:103EC00007F206FB07F70CFB06F616EB074642EB7C
:103ED000174205FB0CFC16EB0C4642EB1C456A181E
:103EE00054F1000148BF7047B619524141EB01013E
:103EF000A3F10103704795F0000F37D04FEA11424C
:103F000021EA02464FEA144724EA074C02FB07F174
:103F100006FB07F70CFB06F414EB074441EB1741D3
:103F200002FB0CFC14EB0C4441EB1C414FEA15471F
:103F300025EA074C02FB07F506FB07F70CFB06F624
:103F400016EB074645EB174502FB0CFC16EB0C463F
:103F500045EB1C42121951F1000148BF7047B619D8
:103F6000524141EB0101A3F1010370474FEA1445AF
:103F700024EA05464FEA114721EA074C05FB07F101
:103F800006FB07F70CFB06F212EB074241EB174169
:103F900005FB0CFC12EB0C4251EB1C414FF00006F0
:103FA00048BF7047921841EB0101A3F1010370472C
:103FB00003B401984100009850EAC12018BF0420C2
:103FC0004A0D18BF40F0010040F2FF72B2EB515FA2
:103FD00008BF40F00200012808BF052002B070476A
:103FE00030380A2801D201207047002070470000B5
:103FF00010B500290AD00878002807D00548784471
:10400000FDF77AF8002801D0002010BD024878445E
:1040100010BD0000BA020000B2020000F1EE100A6A
:104020004FF6FF71C0F2C03120EA010040F040704D
:10403000E1EE100A7047FCF75CBCFCF791BD040090
:104040000008000000000000000200010000103025
:1040500031323334353637383961626364656678B6
:1040600070003031323334353637383941424344C9
:10407000454658500000000002400000000000A02B
:104080000000000005400000000000C80000000023
:104090000C4000000000409C00000000194000009F
:1040A0000020BCBE0000000034400000BFC91B8ED1
:1040B00000000004B5400000504BCFD06607E2CFAF
:1040C000010000006C4100003E8251AADFEEA734DF
:1040D00001000000D9420000DCB5A0E23A301F9791
:1040E000FFFFFFFFB4450000FD25A0C8E9A3C14FB5
:1040F000FFFFFFFFFF3F0000000000800000000006
:10410000FF3F0000000000800000000000000000F1
:104110000000000001020304060708090000F8007F
:1041200007E0001FFFFFA44EBDBBEA4ED2C70F4FF2
:10413000B7FC4D4FCEBB3C50D6B54651D5D7655197
:10414000C8EB7951D7C8FA51B3F69F52B9A6435379
:10415000C7A75553B5A58B53D1B96856C6F7E056D6
:10416000D2F24757BEF9895BB0B24F5CC6C1455E1B
:10417000B7F9555EC4BB735EC6BDA65EB6C8AE5F7A
:10418000CEA2265FCFD2625FD0CE1F61B8D0B96514
:10419000B7BDE065CEDEF665CAB17065CAFD3E66A4
:1041A000CFD40067D7EE0967D3D01F67C6DAEB6BB1
:1041B000BAC1416DC1F74B6DB2E2296ECEC2E26C5D
:1041C000B2A8B970B5E38773C2CAE674CDDF35759E
:1041D000B5E7F476D6B1F876CFE03A79CABED279AF
:1041E000C3EB0B7AB3CC337ACEC87B7CC0E0BE7C09
:1041F000BEABFD80C4DC6888B1EDC689CAD3D28964
:10420000BDC7A18BBCC6BE8BC9E8D58BCAD4EF8B0A
:10421000CEF3938FCAE4CF91C1BF3B96D7E8919874
:10422000C6B59D98B6EE08FFA3A809FFA3A90CFF89
:10423000A3AC1AFFA3BA0C000E0010002400280043
:104240002C003000340018001C00200036003C0018
:104250004200480068000000001000000016000046
:10426000001D00000025000000370000004B00008A
:10427000006100000079000000930000009303003B
:104280000013070000130B0000D3110000531900A6
:104290000093210000932A00D8420008000000206B
:1042A00010000000EC010008E842000810000020A7
:1042B000400B00000C0200081C000000430000003E
:1042C000F8FFFFFF0C0000000E0000000F000000D0
:1042D0002E0000000000000001000000100000009F
:0842E0000024F40000000000BE
:040000050800018965
:00000001FF
