:020000040800F2
:10000000480B002059020008432B0008372900083C
:10001000412B00083B190008DD30000800000000FB
:100020000000000000000000000000007D2D00081E
:10003000351C000800000000452B00087F2D00083B
:1000400073020008730200087302000873020008BC
:1000500073020008730200087302000873020008AC
:10006000730200087302000873020008730200089C
:10007000730200087302000873020008730200088C
:10008000730200087302000873020008730200087C
:10009000730200087302000873020008730200086C
:1000A000730200087302000873020008730200085C
:1000B000730200087302000873020008730200084C
:1000C000730200087302000873020008730200083C
:1000D000730200087302000873020008730200082C
:1000E000730200087302000873020008730200081C
:1000F000730200087302000873020008730200080C
:1001000073020008730200087302000873020008FB
:1001100073020008730200087302000873020008EB
:1001200073020008730200087302000873020008DB
:1001300073020008730200087302000873020008CB
:1001400073020008730200087302000873020008BB
:1001500073020008730200087302000873020008AB
:10016000730200087302000873020008730200089B
:100170007302000873020008730200080000000008
:10018000730200087302000800F002F800F055F84E
:100190000AA090E8000C82448344AAF10107DA45E2
:1001A00001D100F04AF8AFF2090EBAE80F0013F0DF
:1001B000010F18BFFB1A43F001031847F03100008C
:1001C00010320000103A24BF78C878C1FAD852071C
:1001D00024BF30C830C144BF04680C6070470000C1
:1001E0000023002400250026103A28BF78C1FBD840
:1001F000520728BF30C148BF0B607047662903F023
:100200005E80652903F05B80672903F058806129CF
:1002100003F05780642900F0F380002070471FB579
:1002200003F048F800F04CFE04000020002103F029
:100230002BF8E0601FBD10B510BD00F041FF114666
:10024000FFF7EDFF02F0C4FF00F05FFF03B4FFF71C
:10025000F2FF03BC00F0A2FF0948804709480047AD
:10026000FEE7FEE7FEE7FEE7FEE7FEE7FEE7FEE766
:10027000FEE7FEE704480549054A064B70470000C3
:10028000192E00088901000848050020480B0020AD
:10029000480700204807002053EA020C00F069805C
:1002A0002DE9F04B4FF00006002B1FBFB3FA83F58A
:1002B00003FA05F424FA05F65E4012BF1643B2FABB
:1002C00082F502FA05F4C5F120051EBF22FA05FCED
:1002D00044EA0C04203556EA044C4FEA144418BF93
:1002E000641C4FF000084FF00009904271EB030CC2
:1002F00039D3002919BFB1FA81F701FA07F6B0FA2C
:1003000080F700FA07F6C7F120071EBF20FA07FCA6
:1003100046EA0C062037B6FBF4FCA7EB0507103FB6
:1003200007F01F0BCBF120060CFA0BFB2CFA06F69C
:1003300044BFB3460026202FA4BF5E464FF0000BFB
:100340005BEA060C08BF4FF0010B19EB0B09ABFB86
:10035000027C48EB0608C01B06FB02CC0BFB03CC5F
:1003600071EB0C01C1E70B46024641464846BDE829
:10037000F08B13B54FF000004FF00001AFF3008099
:10038000BDE81C40704700000FB41CB5074B06AA1F
:100390007B4469460090059800F079FD002069468D
:1003A00000F088FD1CBC5DF814FB0000210B000070
:1003B00070B5044685690068C10601D5302600E0A5
:1003C0002026C00707D070BDD4E9012130469047F0
:1003D000206A401C20626D1EF6D570BD70B50446C3
:1003E00085690078C00707D170BDD4E901212020BC
:1003F0009047206A401C20626D1EF6D570BD00003B
:100400002DE9F0410646002410687529314616A5ED
:1004100010D0AFF30080002802DA404213A507E0B5
:1004200031688A0701D512A502E0490704D511A554
:10043000012401E0AFF3008000210A2206F1240725
:1004400009E0B0FBF2FCB0FBF2F302FB1C00303021
:1004500078541846491C0028F3D123462A463046D2
:10046000BDE8F04100F028B9000000002D000000B8
:100470002B000000200000002DE9F05F89460446B3
:100480004FF0000ADFF874B1FB44C0F820A020460A
:10049000E1688847002874D0252806D0D4E90121D6
:1004A0009047206A401C2062F1E700265F46204604
:1004B000E16888472028054607DB312D05D27819E9
:1004C00010F8200C08B10643F1E7B00701D526F07B
:1004D0000406C4F81CA00027C4F818A02A2D09D0CF
:1004E000284602F06DFE38B304EB8708303DC8F8AB
:1004F000185019E059F8041B204604EB870291615B
:10050000E1688847012F054618D1E069002820DA04
:1005100026F020061DE0D8F8180000EB800005EB5F
:1005200040003038C8F818002046E1688847054682
:1005300002F046FE0028EED1012F0AD02E2D08D160
:100540002046E16888477F1C0546022F46F02006BA
:10055000C4DBA069002803DA404246F00106A0612E
:10056000F00701D026F010066C2D0BD0682D09D0B5
:100570004C2D39D06A2D35D0742D35D07A2D33D00D
:1005800016E038E0E1682F4620468847B842054625
:1005900009D16C2F26D04FF48060E16806432046D5
:1005A0008847054604E06C2F1AD04FF4807006434C
:1005B0000DB3A5F14100192802D8203546F4006694
:1005C0004A462946204626604E46FFF717FE80B170
:1005D00001280BD0F61D26F0070000F1080956E7A8
:1005E0004020E4E78020D8E70020D6E706F10409A0
:1005F0004DE7284652E7206ABDE8F09F542E0000E0
:1006000010B5203AC0F00B80B1E81850203AA0E8AD
:100610001850B1E81850A0E81850BFF4F5AF5FEAE1
:10062000027C24BFB1E81850A0E8185044BF18C994
:1006300018C0BDE810405FEA827C24BF51F8043B3B
:1006400040F8043B08BF7047D20728BF31F8023B8F
:1006500048BF11F8012B28BF20F8023B48BF00F823
:10066000012B70474FF0000200B5134694469646A2
:10067000203922BFA0E80C50A0E80C50B1F12001B5
:10068000BFF4F7AF090728BFA0E80C5048BF0CC063
:100690005DF804EB890028BF40F8042B08BF7047C1
:1006A00048BF20F8022B11F0804F18BF00F8012B33
:1006B00070477047704770472DE9F0470D469946DF
:1006C0009246044600F124080168880604D5E069D2
:1006D00021F01001216000E00120A84201DD471B4C
:1006E00000E00027A1697A1902EB0900081AA0614D
:1006F0002078C00602D42046FFF75AFE002608E004
:10070000D4E901211AF806009047206A401C761CA3
:1007100020624E45F4DB2078C0060AD52046FFF75C
:1007200047FE06E0D4E9012130209047206A401CB2
:100730002062381EA7F10107F4DC07E0D4E90121AB
:1007400018F805009047206A401C2062281EA5F179
:100750000105F3DC2046FFF741FE2078000602D5B4
:100760000220BDE8F0870120FBE770472DE9FF4F2D
:100770000C461E464FF0FF378BB0D2E90001DDF882
:1007800060800A908A46C1F30A5505B93D460021AA
:1007900008464FF00000BAF1000F00F4400005DAFF
:1007A00000EB80004FF4400101EA50004FEA9059FD
:1007B000B9F1010F00DDB9460A9850EA4A000ED09F
:1007C00044F61050A5F2FF3545432F14B8F1000F41
:1007D0001ED07542291E1EDDC9F100021CE0B8F1D1
:1007E000010F4FF0000001D0302103E0F24305E09B
:1007F0002154401CB042FBDB304600220021215432
:100800000B99C1F80880C1E900200FB0BDE8F08F56
:10081000BD1B6D1CDEE74A4600DA694206A800F0FF
:10082000D9FB06AB93E8070003AB83E8070050460B
:100830000A9900F0BAFC8DE80700A0F500501F38B7
:1008400000900398002D0ADD42F21F014A46084439
:10085000002303A90390684600F023FF09E0A0F5F8
:1008600000504A461F38002303A90390684600F051
:100870002DFF8DE807000004000C03D04FF0FF307F
:10088000410800E01046B8F1000F03D000220092AA
:1008900015461EE0751E05D400F016FB3032625579
:1008A0006D1EF9D5B3460122084302D000227F1CF9
:1008B00004E02078302801D100227F1E002A099709
:1008C00084D01DE0112D07DA00F0FEFA30326255B7
:1008D0006D1C50EA0102F5D1084302D00098C8B15E
:1008E0000EE00021681E05E0235C625C6354225424
:1008F000401E491C8142F7DBAB46A81B401E0990F5
:10090000002004F80B000B98099AC0F80880C0E991
:10091000002B7AE711264FF0000857E72DE9F04F3A
:1009200088460446D21D22F0070191B0D1E90001AA
:10093000CDE90A0102F01CFC02460B98C00F01D061
:100940002D2007E02068810701D52B2002E020211F
:1009500001EAC000032A099001D0072A05DB0346FB
:100960004146204600F0F6FA0BE12078800601D5DA
:10097000E06900E00620B8F1650F814606D0B8F1C5
:10098000660F18D0B8F1670F70D131E00020B9F1CF
:10099000110F009001DB112301E009F101030AAA04
:1009A00001A90CA8FFF7E2FEDDE90C70002609F1B1
:1009B0000105834647E001204B4600904FF0004779
:1009C0000AAA01A90CA8FFF7D1FEDDE90DB00C9928
:1009D0005D46002610B909F101000D18B9EB0500BC
:1009E00003D4C0F1FF3609F10105A5EB09002BE0A6
:1009F000B9F1010F01DA4FF001090020B9F1110F2F
:100A00000090484601DD112300E003460AAA01A92F
:100A10000CA8FFF7ABFEDDE90C704D4600268346BF
:100A2000207800070AD4AB4500DA5D4601A8012D05
:100A300004DD411911F8011C302907D04F4502DAB5
:100A400017F1040F04DA012082460FE06D1EEEE775
:100A5000002F02DCED1B3E4403E0781CA84200DDC1
:100A60007D1CB81B00F1010A4FF0004720780007F9
:100A700003D4AA4501DB4FF0FF3A0021B7F1004F44
:100A80000DF143088DF8431024D002202B23002FB2
:100A900001DA7F422D230A21021EA0F1010000DCB1
:100AA0005FB197FBF1FC97FBF1F201FB1C7C174651
:100AB0000CF1300C08F801CDEEE7A8F1010003704D
:100AC0002188090501D5452100E06521A0F1010833
:100AD00000F8011C09980FA9A1EB0807FF1D00B140
:100AE0000120411901EBEA70A1693844081A401E3F
:100AF000A0612078C00602D42046FFF759FC09986F
:100B000028B1D4E901219047206A401C2062207856
:100B1000C00622D52046FFF74BFC1EE0002E04DB6A
:100B2000B34502DD01A8805D00E03020D4E9012159
:100B30009047206A401C2062761CAAF101005FEAFF
:100B4000000A0AD100F0BCF9C0680168405CD4E931
:100B500001219047206A401C2062281EA5F1010552
:100B6000DCDC07E0D4E9012118F8010B9047206A8A
:100B7000401C2062381EA7F10107F3DC2046FFF776
:100B80002DFC032011B041E62DE9F04F04460D463F
:100B9000D21D22F0070089B0D0E9009748463946B7
:100BA00002F0E6FA0246F80F01D02D2307E0206894
:100BB000810701D52B2302E0202101EAC0038DF833
:100BC00020300BB1012000E00020032A824601D032
:100BD000072A04DB2946204600F0BCF93FE12078D3
:100BE000800601D40D2500E0E569C7F30A560D2DF6
:100BF00049DA00214FEA175B08464FF00000002F4A
:100C000000F4400007DA00EB80004FF4400100EBF5
:100C1000D07001EA60008115012901DD4FF0FF313C
:100C200000224FEA850CBCF1180F06D31346ACF135
:100C300018004FF08052C24003E04FF4801323FAB3
:100C40000CF30CF10C0CBCF1200F04D3ACF1200C14
:100C500009FA0CF001E007FA0CF000294FF0004807
:100C600001DD18B90FE00ED140450CD319EB020994
:100C70005F4121B9404502D19F4329EA0209BBEBFC
:100C8000175F00D0761C2088000502D57B48784489
:100C900002E07A487844193808AA302302F80A306A
:100CA000037C0AF10101002E0AF1020A53546A463C
:100CB00002DC4FF0300101E04FF031014FF001084C
:100CC0008DF8001002D0A6F2FF3603E059EA470182
:100CD00000D06B4E002D02DC2178090704D54FF0BF
:100CE00002082E218DF80110C44600210BE0C7F345
:100CF00003433F01C35C491C6D1E02F808300529FF
:100D000008F1010801DA002DF1DC00210CE000EB14
:100D10001973491C1B786D1E082902F808304FEA28
:100D2000091908F1010801DA002DF0DC21688B06B1
:100D300002D516E0A8F10108E04505DD02EB080345
:100D400013F8013C302BF5D0B8F1000F09DD02EBB0
:100D5000080313F8013C2E2B03D1090701D4A8F195
:100D60000108002D05DD3E2102F808106D1E08F176
:100D70000108407C002E02F8080008F1010804DA9E
:100D80002D20764202F8080002E02B2002F808002D
:100D90000A214FF47A70864208F101080BDB96FBBA
:100DA000F0F3303302F8083096FBF0F308F1010855
:100DB00000FB136601E0642E0CDB642096FBF0F36D
:100DC000303302F8083096FBF0F308F1010800FB1D
:100DD000136601E00A2E06DB96FBF1F0303002F8D4
:100DE000080008F1010896FBF1F001FB10603030BB
:100DF00002F80800A16908F1010808EB050202EBFE
:100E00000A00081AA0612078C00602D42046FFF725
:100E1000CFFA216A08AE01EB0A00206204E0D4E9AF
:100E2000012116F8010B9047BAF1010AF7D2207898
:100E3000C00602D52046FFF7BBFA6E4609E016F859
:100E4000010B3E280FD0D4E901219047206A401CB5
:100E50002062B8F10108F2D22046FFF7BFFA09B0CC
:100E60000320BDE8F08F206A2844206203E0D4E923
:100E70000121302090476D1EEBD3F8E77226000069
:100E800002FCFFFF01694A1C02610878704700B547
:100E90008FB0CDE901310021059105497944CDE9B3
:100EA000031011466846FFF7E7FA0FB000BD0000D7
:100EB000E5FFFFFF0A6802F8010B0A6070470000B7
:100EC000004870470805002030B5B0F10A024FEA2B
:100ED000900E71F100034EEA817EB0EB0E0061EBE3
:100EE00091014FEA101E4EEA017E10EB0E0041EB1D
:100EF00011114FEA102E4EEA016E10EB0E0041EB7D
:100F000011214FEA104E4EEA014E10EB0E0041EB5C
:100F10001141401841F100014FEAD00040EA417010
:100F20004FEAD10110EB80054FEA810444EA907446
:100F300044EB01046D1944EB0404521BA3414FF030
:100F4000000348BF0A3200D530BD401C41F100010A
:100F500030BD00002DE9F0411F460446032601681C
:100F6000072A01F4006004DB08B116A505E016A508
:100F700003E008B115A500E015A521F010002060E0
:100F8000A069C01EA0610FB1401EA0612046FFF7FE
:100F90000FFA4FB1D4E9012138469047206A401C2E
:100FA0002062C01C206206E0206AFAE7D4E9012131
:100FB00015F8010B9047761EF8D22046FFF70EFA7F
:100FC000BDE8F0814E414E006E616E00494E460014
:100FD000696E66002DE9F047814616468AB03548AD
:100FE00078440DC88DE80D0032487844801C03AC6D
:100FF0000DC884E80D0041F69B300844372190FB72
:10100000F1F290FBF1F5A5F1800501FB12041B3C08
:1010100002D56442012000E00020DFF898A080465D
:101020000027FA44AAF1BE0A0EE0E0070AD03246D1
:10103000684607EB470101230AEB810100F046FBFC
:101040008DE8070064107F1C002CEED1194F7F44FF
:10105000AE3F19E0E80715D007EB04100DF1180AB0
:1010600090E80E008AE80E00C068F04201D198199D
:1010700008903246012306A903A800F027FB03AB22
:1010800083E807006D10641C002DE3D14FF00103CD
:1010900032466946B8F1000F03A802D000F001FB08
:1010A00001E000F013FBC9E90001C9F808200AB00B
:1010B000BDE8F087B023000000487047E804002036
:1010C0007546FFF7F9FFAE4605006946534620F026
:1010D0000700854618B020B5FFF7CCF8BDE82040E2
:1010E0004FF000064FF000074FF000084FF0000BE4
:1010F00021F00701AC46ACE8C009ACE8C009ACE897
:10110000C009ACE8C0098D46704710B50446AFF37E
:1011100000802046BDE81040FFF798B84FF0013C32
:1011200050F8042B51F8043B9A4221D1A2EB0C0356
:10113000934313EACC1317D150F8042B51F8043B16
:101140009A4215D1A2EB0C03934313EACC130BD1B3
:1011500050F8042B51F8043B9A4209D1A2EB0C033E
:10116000934313EACC13DBD04FF00000704700BF6D
:10117000D01A01BAB1FA81F101F0180122FA01F096
:10118000CB40C1F12001DBB2C0B2C01A2CFA01F38E
:10119000D11A914311EAC311E6D1704701491820D1
:1011A000ABBEFEE72600020070475FEA400C08BFB6
:1011B00091F0000F4FEA8C234FEAC12243EA5151CC
:1011C0004FEA1C5018BF00F5F0404FEA300018BF3E
:1011D00041F000415FEA6C5C00F02980BCF1FF3F08
:1011E00008BF40F080407047130C06BF12044FF058
:1011F000100C4FF0000C130E04BF12020CF1080C7F
:10120000130F04BF12010CF1040C930F04BF9200E2
:101210000CF1020CD30F04BF52000CF1010C11466B
:101220004FF00002A0F11F00A0EB0C00704711F07E
:10123000004F08BF704731F000413FF4D5AF0B0CB1
:1012400006BF09044FF0100C4FF0000C0B0E04BF4A
:1012500009020CF1080C0B0F04BF09010CF1040C7E
:101260008B0F04BF89000CF1020CCB0F04BF4900A7
:101270000CF1010CCCF12003A0EB0C0022FA03F3DB
:1012800002FA0CF241EA030100F10100704720F07C
:101290007F4C80EA030023F07F47ACEB070303F5A4
:1012A0007C5300F0004003F1FF032DE980494FEA31
:1012B000154B09B44FEA144325EA0B4E24EA0348C0
:1012C0000FF2042606EB132749083E785FEA320244
:1012D00003FB0667C7F5000707FB06F64FEA54371E
:1012E0004FEAD64606F1020607FB066CCCF1005C1D
:1012F0004FEA1C472CEA074C07FB06F40CFB06F5EB
:1013000004EB15464FEA961634BF00204FF000401C
:101310004FEAD13706FB07FC4FEA1C4C0CFB0BF7DE
:10132000D21B03FB0CF761EB07010CFB0EF7B0EBD4
:10133000074072EB17420CFB08F734BFA2EB0742E1
:10134000B2EB074261EB17414FEA0C444FEA9107B9
:1013500006FB07FC4FEA1C4C0CFB0BF7B0EBC7403D
:1013600072EB573203FB0CF734BFA2EBC742B2EB70
:10137000C74261EB57310CFB0EF7B0EBC70072EBC5
:1013800057720CFB08F734BFA2EBC702B2EBC702DF
:1013900061EB5771039F4FEA816141EA921104EBBF
:1013A000CC044FEAD1374FEA826206FB07FC42EADF
:1013B00090124FEA80604FEA1C4C0CFB0BF7D21BDB
:1013C00003FB0CF761EB07010CFB0EF7B0EB0740DA
:1013D00072EB17420CFB08F734BFA2EB0742B2EBEB
:1013E000074261EB17414FEA8C554FEA910704EB36
:1013F0009C2406FB07FC4FEA1C4C0CFB0BF7B0EBE4
:10140000C74072EB573203FB0CF734BFA2EBC74265
:10141000B2EBC74261EB57310CFB0EF7B0EBC700E4
:1014200072EB57720CFB08F734BFA2EBC702B2EBAA
:10143000C70261EB577115EB4C254FEA816141EA18
:1014400092114FEA82624FEAD13742EA901206FBCC
:1014500007FC44F100044FEA80604FEA1C4C0CFB8F
:101460000BF7D21B03FB0CF761EB07010CFB0EF72C
:10147000B0EB074072EB17420CFB08F734BFA2EB4E
:101480000742B2EB074261EB174115EB1C154FEA1F
:10149000813141EA92414FEA823242EA90424FEA78
:1014A00080304FEA0C7644F1000448EA03434EEAE8
:1014B0000B484FF0000EB2EB080C71EB030724BF92
:1014C000624639464EEB0E0E4FF0000B00185241AB
:1014D00049414BEB0B0BB2EB080C71EB03077BF1B3
:1014E000000B24BF624639464EEB0E0E4FF0000B48
:1014F0000018524149414BEB0B0BB2EB080C71EB5E
:1015000003077BF1000B24BF624639464EEB0E0EFB
:1015100051EA020718BF46F0010616EB0E7655F1A8
:10152000000254F1000103D5BDE88901BDE800883F
:10153000BDE88901BDE80048B619524141EB0101FF
:10154000A3F10103704780807F7E7D7C7B7A797870
:10155000777676757473727171706F6E6E6D6C6C78
:101560006B6A6A696868676666656464636362611A
:101570006160605F5F5E5E5D5D5C5C5B5B5A5A599B
:101580005958585757565655555554545353525207
:101590005251515050504F4F4F4E4E4D4D4D4C4C5F
:1015A0004C4B4B4B4A4A4A494949484848474747A8
:1015B00047464646454545444444444343434342E5
:1015C000424242414141002B9C4630D477002BD00F
:1015D0001CB54FEA370703B44FF010004FF010016D
:1015E000BAF1000F06D0BCF1000FDCBF40F00800DC
:1015F00040F008014FF000000FBCBDE810400BF1B7
:10160000010BBBF1010F08BF5FEA170722BF12F100
:10161000010211F101014FF0004143F1000300F01C
:10162000004043EA00007047F9D35708D0E746EA84
:10163000064613F1400F4FEA16461FDD13F1200F47
:10164000DFBF16430A46002120335B42BED0C3F100
:10165000200746EA064602FA07F74FEA164646EA28
:101660000706C3F1200722FA03F201FA07F721FA6D
:1016700003F14FF0000342EA0702A7E746EA020639
:1016800046EA06464FEA164646EA0106BCBF46EA67
:101690000646360C4FF000034FF000024FF00001F9
:1016A00094E72DE9804C9A46934670B491E838004F
:1016B00007C831EA400C48BF34EA430C03D5FFF7B2
:1016C000E6FDFFF780FFF0BCBDE8008C2DE9804C03
:1016D0009A46934670B491E8380007C810F0804FDE
:1016E00008BF13F0804F03D100F005F8FFF76BFF40
:1016F000F0BCBDE8008C20F07F4780EA030023F0B7
:101700007F4C07EB0C03A3F57C5300F00040A3F1E2
:10171000FE0392F0000F00F0B38095F0000F00F090
:1017200077802DE901494FEA11404FEA144621EA3A
:10173000004800FB06FC24EA064708FB06F607FB08
:1017400008F800FB07F718EB06484CEB164C4FEA7D
:10175000124B18EB07484FEA15464CEB174022EAAC
:101760000B4E0BFB06FC25EA06470EFB06F607FBB5
:101770000EFE0BFB07F71EEB064E4CEB164C4FF024
:1017800000061EEB074E4CEB174B18EB0B0840F115
:10179000000018EB0E0B58EB000840F100008F1A08
:1017A0004FF000013CBFC943661B14BFB5EB040CEE
:1017B00000213CBFC943F61B4FEA17444EEA8E0E88
:1017C00027EA04454FEA1C4704FB07622CEA074C52
:1017D00005FB07F70CFB05F604FB0CFC16EB0746B4
:1017E00042EB174216EB0C4642EB1C421BEB060683
:1017F00058EB0202414146EA9E0601D5BDE8018947
:10180000B619524141EB0101A3F10103BDE8018981
:101810004FEA14454FEA114724EA054621EA074CEE
:1018200005FB07F406FB07F70CFB06F105FB0CFCB8
:1018300011EB074144EB17444FEA124711EB0C41FF
:1018400044EB1C4422EA074C05FB07F206FB07F7B2
:101850000CFB06F605FB0CFC16EB074642EB1742A9
:1018600016EB0C4642EB1C456A1854F1000148BFC8
:101870007047B619524141EB0101A3F101037047D2
:1018800095F0000F37D04FEA11424FEA144721EA92
:10189000024624EA074C02FB07F106FB07F70CFBA4
:1018A00006F402FB0CFC14EB074441EB17414FEA32
:1018B000154714EB0C4441EB1C4125EA074C02FB95
:1018C00007F506FB07F70CFB06F602FB0CFC16EB14
:1018D000074645EB174516EB0C4645EB1C42121923
:1018E00051F1000148BF7047B619524141EB010167
:1018F000A3F1010370474FEA14454FEA114724EA68
:10190000054621EA074C05FB07F106FB07F70CFB30
:1019100006F24FF0000605FB0CFC12EB074241EB10
:10192000174112EB0C4251EB1C4148BF7047921813
:1019300041EB0101A3F101037047FEE710B586B04A
:1019400018220CA16846FEF75BFE162200210F4804
:1019500001F0C6FB0D4A00206946135C0C5CA342F3
:1019600002D0002006B010BD401C1628F5D301207F
:10197000F8E700004A59432D344D62427974652DD1
:10198000464F4E542D464C415348000080040020E1
:101990002DE9FF5F0446A54800919146C0780844B0
:1019A0000190A6E009F10101A12811F8012B894657
:1019B00074D3A12A72D35E21A1389C4D01FB002172
:1019C000E888A13902464843E968014405F114005A
:1019D00001F086FBA978601E08440290B0F5A07F54
:1019E00012D340F23F12B0FBF2F3E878009A491E9E
:1019F00003FB002202918118002400920191F0293A
:101A000002D90021CDE90010019883B2029882B278
:101A1000009881B2A0B201F041FA2C2001F028FA1E
:101A20000024AB4603945DE0817800264FEAD10A9A
:101A300001F0070826E07D4800251430075D641C8E
:101A4000380609D4BBF80800794911F8100001F0F4
:101A50001AFABBF8081008E0BBF80A10744810F82E
:101A6000110001F010FABBF80A10714800EB4100B8
:101A7000407801F008FA78066D1C070EEDB2082DCB
:101A8000DED3761C5645D6D3B8F1000F27D0674871
:101A900000251430DA46065D641C1EE030E0300696
:101AA00009D4BAF80800624F17F8100001F0EBF9FA
:101AB000BAF8080008E0BAF80A005D4F17F81000FD
:101AC00001F0E1F9BAF80A0007EB4000407801F0B4
:101AD000DAF97006060E6D1CEDB24545DFD30398AA
:101AE000401C03909BF80320039958468A429BD8D8
:101AF000029C99F8000000287FF454AFBDE8FF9FD6
:101B00004A4DA9F10109AA8829692B7800FB021125
:101B1000601E1844029005F1140001F0E1FA0298E9
:101B2000EF2814D9EF21B0FBF1F268780099002476
:101B300002FB001100912978491E0291009901448D
:101B40000191B1F5A07F02D30021CDE900100198E9
:101B500083B2029882B2009881B2A0B201F09EF9DD
:101B6000002420465BE0017800274FEAD10A01F00B
:101B7000070825E02D4800251430065D641C30065A
:101B80002A4808D401892A4810F8110001F07BF98D
:101B90002648018907E04089254911F8100001F025
:101BA00072F922484189224800EB4100407801F057
:101BB0006AF970066D1C060EEDB2082DDFD37F1C8E
:101BC0005745D7D3B8F1000F27D018480025143057
:101BD000DFF858A0065D641C1DE0300609D4BAF891
:101BE0000800134F17F8100001F04DF9BAF808007B
:101BF00008E0BAF80A000E4F17F8100001F043F998
:101C0000BAF80A0007EB4000407801F03CF9700692
:101C1000060E6D1CEDB24545DFD30BF10100834686
:101C20000248417859459ED862E700006C040020C4
:101C3000D6320008704772B6FEE7000070B5044661
:101C400000F014F90546601C02D0044800780444F2
:101C500000F00CF9401BA042FAD370BD0000002038
:101C60002DE9F84FDFF8BCA10022012503264FF033
:101C70000F090AF1040BAAF1040E00BF0B6805FA64
:101C800002F42340A34270D10F7907F00307012F1C
:101C900001D0022F16D187684FEA420806FA08FCE5
:101CA00027EA0C07D1F80CC00CFA08FC4CEA070C28
:101CB000C0F808C04768A7430C79C4F300149440E7
:101CC0003C4344600C79E443A4070AD0C4684FEA5B
:101CD000420C06FA0CF7BC438F6807FA0CF727434F
:101CE000C7600C7904F00304022C12D1D40800EB75
:101CF000840CDCF820405707FF0E09FA07F824EAA5
:101D00000804D1F8108008FA07F848EA0408CCF86B
:101D1000208004684FEA420C06FA0CF7BC430F79A6
:101D200007F0030707FA0CF7274307604C6814F421
:101D3000403F70D03C4C276847F4804727602468B8
:101D400022F0030704F480440094384C07EB040CA1
:101D5000DCF8084897074FEA177809FA08F7BC43F8
:101D6000334FB84202D1002724E054E0314FB8424B
:101D700001D101271EE0304FB84201D1022719E0FE
:101D80002E4FB84201D1032714E02D4FB84201D1A4
:101D900004270FE02B4FB84201D105270AE02A4F54
:101DA000B84201D1062705E0284FB84201D10727E4
:101DB00000E0082707FA08F72743CCF80878DAF894
:101DC00000405746D1F804C09C435FEACC2C00D5B4
:101DD0001C433C60DBF800405F46D1F804C09C43E4
:101DE0005FEA8C2C00D51C433C60DEF8004077464F
:101DF000D1F804C09C435FEA8C3C00D51C433C6096
:101E0000084F083F3C68D1F804C09C435FEACC3CD3
:101E100000D51C433C60521C102AFFF42FAFBDE8D4
:101E2000F88F0000083C0140443802400030014077
:101E3000000002400004024000080240000C024082
:101E4000001002400014024000180240001C024032
:101E5000426921EA02030A4043EA02418161704774
:101E60000AB1816170470904FBE7000001488068FE
:101E70007047000000000020024881680278114489
:101E800081607047000000200B4810B5016841F4E4
:101E900000710160016841F480610160016841F4F2
:101EA00080710160032000F061F80F2000F006F857
:101EB00000F024F8002010BD003C024070B50D4D2C
:101EC00004464FF47A712878B1FBF0F00A490968AA
:101ED000B1FBF0F000F01BFD48B9102C07D2002236
:101EE0002146501E00F022F800206C6070BD0120D9
:101EF00070BD0000000000200C0000200A4808B55A
:101F0000016841F480410160006800F48040009065
:101F10000548001F016841F080510160006800F031
:101F20008050009008BD000044380240F0B40E4BD1
:101F30001B680C46C3F30223C3F10705042D00D927
:101F40000425191D072901D2002300E0DB1E01260C
:101F500006FA05F1491E214099409E40761E164022
:101F60003143F0BC01F01CB90CED00E0064900F073
:101F7000070208684FF6FF03184040EA0220034AB0
:101F800010430860704700000CED00E00000FA0507
:101F90002DE9F0470E46050065D0DFF81481D8F82A
:101FA0000000F7B200F00700B04207D288F80070D6
:101FB000D8F8000000F00700B04254D128683D4C2A
:101FC000810712D5400703D5206840F4E050206017
:101FD0002878000703D5206840F46040206020681E
:101FE000A96820F0F000084320602878C0072DD0B1
:101FF000304968680839012812D0022813D0032814
:1020000011D00968890700292DDA216821F0030120
:1020100001432160FFF72AFF814641F2883A0EE032
:1020200009688903EFE709688901ECE7FFF71EFFFC
:10203000A0EB0901514502D90320BDE8F0872068D3
:10204000696800F00C00B0EB810FEFD1D8F80010F8
:10205000404601F00701B14207D90770006800F05F
:102060000700B04201D00120E7E72878400705D5F6
:102070002068E96820F4E0500843206028780007D1
:1020800006D52068296920F4604040EAC10020603C
:1020900000F018F82168084AC1F30311515CC840E8
:1020A0000649086006480068FFF708FF0020C4E7FB
:1020B000003C024008380240C63200080C000020F4
:1020C00004000020154810B5006810F00C021448F8
:1020D00013D04110042A0FD0082A0ED10F4C241F10
:1020E0002268236802F03F025B0207D52068C0F334
:1020F0008810A0FB010106E0084610BD2168C1F36D
:102100008811A1FB00010023FEF7C6F82168C1F386
:102110000141491C4900B0FBF1F010BD08380240F4
:102120000024F4002DE9F84F04006ED02078DFF889
:102130004C93C007A9F104054AD009F104000168D5
:10214000C1F38101012908D00068C0F38100022891
:102150000AD1D9F80000400206D52868800337D597
:1021600060680028E1D033E06068B0F5803F10D0AF
:10217000B0F5A02F286810D020F48030286028689F
:1021800020F4802028606068A8B1FFF76FFE064643
:102190000DE0286840F48030F4E740F480202860A7
:1021A000F7E700BFFFF762FE801B642873D828683A
:1021B0008003F7D50CE0FFF759FE064605E000BFA7
:1021C000FFF754FE801B6428F0D828688003F7D4FA
:1021D0002078DFF8AC8280074FF0000A3ED5A74890
:1021E000001D016811F00C0F08D00068C0F38100D9
:1021F00002280BD1D9F80000400207D428688007D4
:1022000016D5E068012800D112E033E1E068B8B1EA
:102210000120C8F80000FFF729FE064605E000BFD0
:10222000FFF724FE801B0228C0D828688007F7D556
:102230002868216920F0F80040EAC10028600DE01C
:10224000C8F800A0FFF712FE064604E0FFF70EFEF6
:10225000801B02281FD828688007F7D42078000741
:1022600022D5864F87486169703771B101210160BD
:10227000FFF7FCFD064604E0FFF7F8FD801B02288F
:1022800009D838688007F7D50EE0C0F800A0FFF73E
:10229000EDFD064605E082E0FFF7E8FD801B022821
:1022A0007DD838688007F7D42078400768D5DFF8F4
:1022B000CCB100270BF13C0BDBF80000C0000BD4C5
:1022C000DBF8001041F08051CBF80010DBF8000083
:1022D000012700F0805000906B4E3068C00510D48C
:1022E000306840F480703060FFF7C0FD009005E07A
:1022F000FFF7BCFD0099401A022850D83068C0058D
:10230000F6D55E4EA0686C3601280FD005283068DF
:1023100010D020F001003060306820F00400306000
:10232000A068B8B1FFF7A2FD00900FE0306840F060
:102330000100F4E740F004003060F7E7FFF796FD96
:102340000099411A41F28830814266D8306880078E
:10235000F4D50EE0FFF78AFD009007E0FFF786FD59
:102360000099411A41F28830814256D8306880077E
:10237000F4D42FB1DBF8001021F08051CBF800101D
:10238000A069C8B33D49091D0968C1F3810102294B
:102390004AD00228504607D0C8F8600000E03CE070
:1023A000FFF764FD04463BE04746C8F86000FFF7CE
:1023B0005DFD064605E000BFFFF758FD801B0228C3
:1023C0002BD828688001F7D4D4E907010843A16A13
:1023D0002E4A490802EB0141626A41EA8211084330
:1023E00094F82C1040EA0161C9F800100120386609
:1023F000FFF73CFD044606E03EE000BFFFF736FD78
:10240000001B022809D828688001F7D534E000BFF6
:10241000FFF72CFD001B022802D90320BDE8F88F2E
:1024200028688001F4D427E00128F7D0D9F800000B
:10243000E26900F4800191421CD1226A00F03F0160
:10244000914217D147F6C071626A0140B1EB821F19
:1024500010D1A26A4FF0FF3300F4403103EB520277
:10246000B1EB024F06D194F82C1000F07060B0EB85
:10247000016F01D00120D1E70020CFE704380240EE
:1024800000004742800E4742007000400000FFFFFE
:1024900070B5040009D0606A002540B1256165610E
:1024A000A56294F8510040B10CE0012070BD606855
:1024B000B0F5827FF4D0E561F2E784F85050204611
:1024C00000F044F8022084F851002068016821F0EF
:1024D00040010160A088218900F4827001F4044168
:1024E0000843A18901F400610843217C01F0020145
:1024F0000843217D01F001010843218B01F40071A3
:102500000843217F01F03801084394F8201001F0BE
:1025100080010843218D01F40051084321680860BF
:10252000A069042101EA104094F8241001F0100180
:102530000843216848602068C16921F40061C161D5
:102540006565012084F85100002070BD10B586B08B
:10255000044614216846FEF785F81449206888422D
:1025600021D113480021026842F4804202600068D1
:1025700000F4804005900E481038026842F00202D4
:102580000260006800F0020005904FF46040009087
:102590000220CDE901010320039005200490694643
:1025A0000448FFF75DFB06B010BD00000038004096
:1025B00040380240000402402DE9F84F9846164684
:1025C0008A460446FFF752FC814694F851000128E0
:1025D0001ED1BAF1000F73D0002E71D094F85000C4
:1025E000012815D0012784F85070032084F8510089
:1025F00000256565C4F830A0A686E686A563A58794
:10260000E58765642564A068B0F5004F03D00CE051
:102610000220BDE8F88F2068016821F040010160C8
:102620002068016841F48041016020680168490622
:1026300003D4016841F040010160E068B0F5006F2B
:10264000606803D048B3012E27D047E008B1012EBF
:102650001FD1206B21680088C86006E0206881686F
:10266000890709D5216B0988C160206B801C206314
:10267000E08E401EE0860CE0FFF7F8FBA0EB0901BE
:10268000414503D3B8F1FF3F03D035E0B8F1000F67
:1026900032D0E08E0028E1D123E0206B2168007861
:1026A000087306E02068816889070AD5216B0978DC
:1026B0000173206B401C2063E08E401EE0860DE01D
:1026C0002BE0FFF7D3FBA0EB0901414503D3B8F1A1
:1026D000FF3F03D010E0B8F1000F0DD0E08E0028CE
:1026E000E0D14A464146204600F0B4FA08B1202025
:1026F0006065A06830B109E084F8517084F85050EA
:10270000032086E72068C1688068009084F85170D3
:1027100004F8505F60680028F3D0012079E72DE9C4
:10272000FF4F81B01D46934604464FF001090E9EAF
:10273000FFF79CFB074694F851006168012806D01A
:10274000B1F5827F3CD1A168C9BB042838D1029879
:10275000002871D0BBF1000FFBD0002DF9D094F808
:10276000500001282CD04FF0010A84F850A094F8B2
:102770005100042802D0052084F851004FF00008D1
:10278000C4F85480C4F838B0E587A587029921635E
:10279000E586A586C4F84080C4F8448020680168B6
:1027A000490603D4016841F040010160E068B0F5DA
:1027B000006F606808D0F0B3012D49D081E0FFE7D9
:1027C000022005B0BDE8F08F08B1012D39D1206B92
:1027D00021680088C860206B801C2063E08E401E4A
:1027E000E0862EE02068816889070FD5E18E69B107
:1027F000B9F1010F0AD1216B0988C160206B801CDF
:102800002063E08E401EE0864FF00009206881685A
:10281000C9070CD0E18F51B1C068A16B0880A06BD3
:10282000801CA063E08F401EE0874FF00109FFF796
:102830001DFBC01B01E00BE067E0B04201D3701C40
:1028400050D1E08E0028CDD1E08F0028CAD13EE0E3
:10285000206B216800780873206B401C2063E08E99
:10286000401EE0862DE02068816889070FD5E18E43
:1028700069B1B9F1010F0AD1216B09780173206B9D
:10288000401C2063E08E401EE0864FF00009206867
:102890008168C9070CD0E18F51B1C068A16B087085
:1028A000A06B401CA063E08F401EE0874FF0010941
:1028B000FFF7DCFAC01BB04202D3701C01D011E05C
:1028C00086B1E08E0028CED1E08F0028CBD13A46E9
:1028D0003146204600F0BEF950B12020606584F8F2
:1028E000508012E084F851A084F85080032068E7FB
:1028F000A06818B92068C1688068009084F851A069
:1029000084F85080606D0028F1D0012059E710B59F
:10291000401EB0F1807F01D3012010BD4FF0E024B4
:1029200060610F21601700F03BFC0020A0610720D0
:102930002061002010BDFEE72DE9F0410C46020A9F
:10294000C3B200200B494FF480656E100A540F1873
:10295000801C7B70A842F9D308E03546AC4200D811
:1029600025466900034800F037F8641B002CF4D1B9
:10297000BDE8F0816C00002010B50B4C0122202135
:102980002046FFF76DFA012240212046FFF768FA42
:10299000012210212046FFF763FA20460122BDE8FC
:1029A00010408021FFF75CBA000C024001B582B0F4
:1029B000FF208DF804004FF0FF300090012301AAA2
:1029C00002A90348FFF7ABFE9DF804000EBD00000E
:1029D00014000020FFF7EABF002808D0002906D025
:1029E0008AB201464FF0FF330148FFF7E5BD70475B
:1029F000140000202DE9F0432DED028B80461F4886
:102A00008FB00F46857A047A189E9946B0EE408AB8
:102A1000F0EE608A01A90E2A02DD0E22002001E0FC
:102A2000002002E020230B54401C9042FADB0020DF
:102A3000885421463246084600F086F801AA3946F5
:102A40004046FEF7A5FF32462146284600F07CF8B6
:102A50004A460BA10BA8FDF797FC53EC182B0BA9CA
:102A600007A8FDF791FC07AA39464046FEF790FFFC
:102A70000FB0BDEC028BBDE8F08300006C040020B9
:102A800025252E256466000030B587B014216846E0
:102A9000FDF7E8FD16480024016841F0800101605F
:102AA000016801F080010591016841F001010160B8
:102AB000016801F001010591016841F00801016020
:102AC00000680C4D00F0080005900122F82128460E
:102AD000FFF7C6F9F82000900120CDE9010402209B
:102AE000039069462846FFF7BBF807B030BD0000E9
:102AF00030380240000C0240104810B50E49016009
:102B00004FF48271416000218160C1604FF4007216
:102B10000161C0E905120822C0E907214162816212
:102B20000A21C162FFF7B4FC002803D0BDE81040C1
:102B3000FFF781B810BD00000038004014000020ED
:102B4000FEE7FEE7704700003A4B10B51981588147
:102B50000C201821082A5CD2DFE802F0040F1B27A2
:102B600034414E5C4FF480521A614FF41342DA60E4
:102B70009880587006221A7058E04FF4B0501861CF
:102B80002D48D8600E2098805870072119701C219C
:102B90004CE04FF4E85018612848D8601020988025
:102BA000587008211970202140E04FF4145018612A
:102BB0002348D86024209880122058700921197069
:102BC000362133E04FF45C5018611E48D86028204D
:102BD0009880142058700A2119703C2126E04FF487
:102BE000964018611848D8602C209880162058709C
:102BF0000B211970422119E04FF4C2421A61134AA5
:102C0000DA6030229A80597018704820D880D970C4
:102C1000997010BD4FF4F24018610D48D86034200F
:102C200098801A2058700D2119706821D980D870A9
:102C3000987010BD6C04002000930300001307007F
:102C400000130B0000D31100005319000093210062
:102C500000932A00F8B515460E460B46009204462E
:102C60000122022100F02CF8A0B913481349006892
:102C7000B0FBF1F04FF47A71484300906068B0F512
:102C8000827F0DD13346002280212046009500F03E
:102C900017F870B1606D40F0200060650320F8BD4A
:102CA000009830B1401E009020688068C043000644
:102CB000F6D50020F8BD00000C00002000366E01A3
:102CC0002DE9F8431E46914688460446089DFFF7C5
:102CD000CDF8401B351AFFF7C9F8074626480068AB
:102CE000C0F3CB3068430AE0701C09D0FFF7BEF890
:102CF000C01BA8420FD275B10098B8B3401E009017
:102D00002068816838EA010033D000214945EBD1C1
:102D10000020BDE8F8832068416821F0E0014160AF
:102D20006068B0F5827F0BD1A068B0F5004F02D08B
:102D3000B0F5806F04D12068016821F04001016086
:102D4000A06AB0F5005F09D12068016821F4005144
:102D500001602068016841F400510160012084F89D
:102D60005100002084F850000320D2E7FFE700253F
:102D7000C6E70121CAE700000C0000207047FFF7FA
:102D80007BB8000030B593B030216846FDF76AFC8F
:102D900014210CA8FDF766FC1D480025016841F0D0
:102DA00080510160006800F080501190194801685E
:102DB00041F4804101600068022400F480401190D9
:102DC00001200090000401908001CDE9064008AA8E
:102DD0000420A82182E813000B906846FFF7A2F9AF
:102DE00008B172B6FEE70CA90F2081E831004FF45C
:102DF000A0500F904FF48050109005210CA8FFF7C1
:102E0000C7F8002801D072B6FEE713B030BD00004D
:102E100040380240007000400248016841F47001EF
:102E20000160704788ED00E010B5064C207800285E
:102E300006D0012220210448FFF712F8002020705C
:102E400010BD000010000020000C024010B5064C20
:102E50002078002806D1002220210448FFF700F83E
:102E60000120207010BD000010000020000C024066
:102E700010B50446FFF7EAFF204600F05DF9BDE813
:102E80001040FFF7D1BF10B50446FFF7DFFF204623
:102E900000F060F9BDE81040FFF7C6BF2DE9F04132
:102EA000064615460C461F46FFF7D0FF2A2000F0C5
:102EB00043F9300A00F04EF9F0B200F04BF9280A5D
:102EC00000F048F9E8B200F045F92B2000F034F9A1
:102ED000200A00F03FF9E0B200F03CF9380A00F0B7
:102EE00039F9F8B200F036F9BDE8F0412C2000F0D5
:102EF00023B9000070B50D494FF4963501EB400041
:102F00000021008840F23F1344BAEF220846FFF741
:102F1000C5FF012210210648FEF7A2FF29462046E0
:102F2000FFF70AFDBDE87040FFF77EBFD63200080C
:102F3000000C024010B5684C002208212046FEF724
:102F40008FFF6420FEF77AFE012208212046FEF75B
:102F500087FF6420FEF772FEFFF778FF112000F074
:102F6000EBF87820FEF76AFE362000F0E5F8002046
:102F700000F0F0F83A2000F0DFF8552000F0EAF811
:102F8000B22000F0D9F80C2000F0E4F80C2000F09A
:102F9000E1F8002000F0DEF8332000F0DBF8332009
:102FA00000F0D8F8B72000F0C7F8352000F0D2F8CC
:102FB000BB2000F0C1F81F2000F0CCF8C02000F0CA
:102FC000BBF82C2000F0C6F8C22000F0B5F80120B4
:102FD00000F0C0F8C32000F0AFF8122000F0BAF8FB
:102FE000C42000F0A9F8202000F0B4F8C62000F0BA
:102FF000A3F80F2000F0AEF8D02000F09DF8A42038
:1030000000F0A8F8A12000F0A5F8E02000F094F866
:10301000D02000F09FF80D2000F09CF8142000F064
:1030200099F80B2000F096F80B2000F093F8072099
:1030300000F090F83A2000F08DF8442000F08AF873
:10304000502000F087F8082000F084F8132000F0EA
:1030500081F8132000F07EF82D2000F07BF832205C
:1030600000F078F8E12000F067F8D02000F072F866
:103070000D2000F06FF8142000F06CF80B2000F029
:1030800069F80B2000F066F8072000F063F83A209A
:1030900000F060F8442000F05DF8502000F05AF88D
:1030A000082000F057F8132000F054F8132000F027
:1030B00051F82D2000F04EF8322000F04BF820207F
:1030C00000F03AF8292000F037F81420FEF7B6FD9A
:1030D000BDE81040FFF7A8BE000C0240FEE700006C
:1030E0002DE9F041134F15460C46064600224021BB
:1030F0003846FEF7B5FE0320FFF76CFCC4F307402B
:10310000FFF768FCC4F30720FFF764FCE0B2FFF7A9
:1031100061FC002405E0FF20FFF748FC3055641CEB
:10312000A4B2AC42F7D33846BDE8F04101224021B9
:10313000FEF796BE000C024010B504460022102196
:103140000348FEF78DFE2046BDE81040FFF742BC65
:10315000000C024010B50446012210210348FEF77E
:103160007FFE2046BDE81040FFF734BC000C024053
:1031700003B401984100009850EAC12018BF042010
:103180004A0D18BF40F0010040F2FF72B2EB515FF0
:1031900008BF40F00200012808BF052002B07047B8
:1031A0000907090E002804DB00F1E02080F8001474
:1031B000704700F00F0000F1E02080F8141D704708
:1031C00030380A2801D201207047002070470000E3
:1031D00008B5FEF759FEFFF7D5FDFFF755FCFFF7E1
:1031E0008BFCFFF7C9FBFFF7A5FE012280211D48DC
:1031F000FEF736FEFEF7A2FB30B30020FFF77AFEA3
:10320000062200210420FFF79FFC0A2116A208468F
:10321000FEF7BEFB042200210220FFF795FC0420EC
:103220000346009008229FED130B3C210A20FFF774
:10323000E1FB022200210320FFF786FC0FA264219C
:103240000A20FEF7A5FB02E00120FFF753FE4FF432
:1032500000510C48FEF7FCFD4FF47A70FEF7EEFCCF
:10326000FEE70000000C0240C6C1C4BBB2E2CAD4F3
:10327000000000006E861BF0F921094054465420DE
:103280004F4B00000004024010B500290AD0087816
:10329000002807D005487844FDF740FF002801D0FA
:1032A000002010BD0248784410BD00003601000027
:1032B0002E0100004FF04070E1EE100A7047FDF75C
:1032C0002DBBFDF761BC0000000000000000010202
:1032D0000304060708090000F80007E0001FFFFFCD
:1032E00004000008000000000000000200010000CF
:1032F00010303132333435363738396162636465C2
:1033000066787000303132333435363738394142DF
:10331000434445465850000002400000000000A011
:103320000000000005400000000000C80000000090
:103330000C4000000000409C00000000194000000C
:103340000020BCBE0000000034400000BFC91B8E3E
:1033500000000004B5400000504BCFD06607E2CF1C
:10336000010000006C4100003E8251AADFEEA7344C
:1033700001000000D9420000DCB5A0E23A301F97FE
:10338000FFFFFFFFB4450000FD25A0C8E9A3C14F22
:10339000FFFFFFFFFF3F0000000000800000000073
:1033A000FF3F00000000008000000000E83300083C
:1033B0000000002014000000C4010008FC330008D5
:1033C00014000020340B0000E00100081C00000085
:1033D00043000000F8FFFFFF0C0000000E0000009B
:1033E0000F0000002E00000001000000100000008F
:0C33F000000000000024F40000000000B9
:040000050800018965
:00000001FF
